:020000040800F2
:10000000E02B0020B90300085F340008D732000855
:100010005D34000863200008473B00080000000032
:10002000000000000000000000000000D9020008ED
:1000300065200008000000003503000809360008AC
:10004000D3030008D3030008D3030008D303000838
:10005000D3030008D3030008D3030008D303000828
:10006000D3030008D3030008D3030008D303000818
:10007000D3030008D3030008D3030008D303000808
:10008000D3030008D3030008D3030008D3030008F8
:10009000D3030008D3030008D3030008D3030008E8
:1000A000D3030008A1360008D3030008D3030008D7
:1000B000D30300080000000000000000D303000884
:1000C000D3030008D3030008D3030008D3030008B8
:1000D000D3030008D3030008D3030008D3030008A8
:1000E000D3030008D3030008000000000000000054
:1000F0000000000000000000000000000000000000
:1001000000000000D303000800000000D303000833
:100110000000000000000000D3030008D303000823
:10012000D3030008D3030008D3030008D303000857
:10013000D3030008000000000000000000000000E1
:10014000D3030008D3030008D30300080000000015
:10015000D3030008D3030008D3030008D303000827
:10016000D3030008D3030008D303000800000000F5
:10017000D3030008D30300080000000000000000C3
:10018000D3030008D3030008D303000800F002F8EB
:1001900000F092F80AA090E8000C82448344AAF18F
:1001A0000107DA4501D100F087F8AFF2090EBAE88D
:1001B0000F0013F0010F18BFFB1A43F0010318479B
:1001C0004869000068690000103A24BF78C878C107
:1001D000FAD8520724BF30C830C144BF04680C604D
:1001E000704700000023002400250026103A28BF95
:1001F00078C1FBD8520728BF30C148BF0B60704799
:100200006E2900F0C484702900F06F82662906F020
:10021000E682652906F0E382672906F0E08261291B
:1002200006F0DF8203681B0A28BF41F080016929BC
:1002300000F0E081642900F0DD81752900F0DA81A9
:100240006F2900F0B685782900F03B82E92900F09B
:100250005185E42900F04E85F52900F04B85EF2902
:1002600000F0B385F82900F03A820368DB0928BF63
:1002700041F08001632900F0CE84732900F0D3841B
:10028000E32901F0C281F32901F0C7810020704702
:100290001FB506F09FFA01F011FA040000200021BA
:1002A00006F082FA401C60600020002106F066FA29
:1002B000E0601FBD10B510BD01F0D3F91146FFF786
:1002C000E7FF04F0E5FA01F0AFFA03B4FFF7F2FF3D
:1002D00003BC01F0F7FA00002C4B1968086800F025
:1002E0005AB880F30988BFF36F8F4FF0000080F396
:1002F000118870470000000008480068006880F31B
:1003000008884FF0000080F3148862B661B6BFF32E
:100310004F8FBFF36F8F00DF00BF00BF08ED00E01D
:10032000DFF80C00016841F470010160704700BF04
:1003300088ED00E0EFF30980BFF36F8F134B1A686D
:100340001EF0100F08BF20ED108A20E9F04F10605A
:1003500009B44FF0500080F31188BFF34F8FBFF303
:100360006F8F05F0E7FA4FF0000080F3118809BCA9
:100370001968086800F014B81EF0100F08BF00F0EC
:1003800014B880F30988BFF36F8F704720000020F6
:10039000EFF30580704730C8B0E8C04FFFF7A1BF4A
:1003A00030C8B0E8C04FFFF7E7BFB0EC088AB0EC48
:1003B00008CAFFF7E6BF0000094880470948004720
:1003C000FEE7FEE7FEE7FEE7FEE7FEE7FEE7FEE705
:1003D000FEE7FEE704480549054A064B7047000062
:1003E000913600088D010008E0250020E02B002058
:1003F000E0270020E027002053EA020C00F069808B
:100400002DE9F04B4FF00006002B1FBFB3FA83F528
:1004100003FA05F424FA05F65E4012BF1643B2FA59
:1004200082F502FA05F4C5F120051EBF22FA05FC8B
:1004300044EA0C04203556EA044C4FEA144418BF31
:10044000641C4FF000084FF00009904271EB030C60
:1004500039D3002919BFB1FA81F701FA07F6B0FACA
:1004600080F700FA07F6C7F120071EBF20FA07FC45
:1004700046EA0C062037B6FBF4FCA7EB0507103F55
:1004800007F01F0BCBF120060CFA0BFB2CFA06F63B
:1004900044BFB3460026202FA4BF5E464FF0000B9A
:1004A0005BEA060C08BF4FF0010B19EB0B09ABFB25
:1004B000027C48EB0608C01B06FB02CC0BFB03CCFE
:1004C00071EB0C01C1E70B46024641464846BDE8C8
:1004D000F08B13B54FF000004FF00001AFF3008038
:1004E000BDE81C40704700007CB51D4616460C0058
:1004F000009001D02044401E074B7B442A466946A9
:100500000190304600F05DFB05461CB100206946B5
:1005100000F06AFB28467CBDF50600000FB47CB5F0
:100520000C0009AA009001D02044401E084B7B44D7
:1005300069460190089800F044FB05461CB1002074
:10054000694600F051FB28467CBC5DF814FB0000B6
:10055000C106000070B5044685690068C10601D572
:10056000302600E02026C00707D070BDD4E9012165
:1005700030469047206A401C20626D1EF6D570BD43
:1005800070B5044685690078C00707D170BDD4E90D
:10059000012120209047206A401C20626D1EF6D564
:1005A00070BD70B50C460546012A05D02878800636
:1005B00000D5EA69002302E0012305E05B1C9342B9
:1005C00002D2E05C0028F9D1A869E618C01AA86137
:1005D000286A184428622846FFF7BCFF04E0D5E9E2
:1005E000012114F8010B9047B442F8D32846FFF7D5
:1005F000C7FF70BD2DE9F04106460024106875293B
:10060000314616A510D000F057FA002802DA404211
:1006100013A507E031688A0701D512A502E0490752
:1006200004D511A5012401E000F04FFA00210A22AF
:1006300006F1240709E0B0FBF2FCB0FBF2F302FB89
:100640001C00303078541846491C0028F3D123464A
:100650002A463046BDE8F04100F040BA00000000F4
:100660002D0000002B00000020000000F0B40D461B
:100670000188090502D5214C7C4402E01F4C7C44D2
:100680000E34002100F1240608E002F00F071209E1
:10069000E75D42EA03721B097754491C52EA0307DB
:1006A000F3D102780023120704D5702D06D009B1CA
:1006B000022311342246F0BC00F010BA012310349A
:1006C000F8E770B504460D462146106800F0FDF9C4
:1006D000024629462046BDE870400023C6E7D21DE9
:1006E00022F00703D3E90023C0E70368126843F050
:1006F000200303600823C3610023B7E72D630000D4
:100700002DE9F05F894604464FF0000ADFF874B126
:10071000FB44C0F820A02046E1688847002874D038
:10072000252806D0D4E901219047206A401C206288
:10073000F1E700265F462046E16888472028054605
:1007400007DB312D05D2781910F8200C08B10643CB
:10075000F1E7B00701D526F00406C4F81CA0002775
:10076000C4F818A02A2D09D0284603F015FA38B38A
:1007700004EB8708303DC8F8185019E059F8041BFD
:10078000204604EB87029161E1688847012F054606
:1007900018D1E069002820DA26F020061DE0D8F8FC
:1007A000180000EB800005EB40003038C8F8180056
:1007B0002046E1688847054603F0EEF90028EED1AF
:1007C000012F0AD02E2D08D12046E16888477F1CD2
:1007D0000546022F46F02006C4DBA069002803DA94
:1007E000404246F00106A061F00701D026F0100655
:1007F0006C2D0BD0682D09D04C2D39D06A2D35D0F9
:10080000742D35D07A2D33D016E038E0E1682F46CC
:1008100020468847B842054609D16C2F26D04FF4B0
:100820008060E168064320468847054604E06C2F57
:100830001AD04FF4807006430DB3A5F1410019287A
:1008400002D8203546F400664A46294620462660EE
:100850004E46FFF7D5FC80B101280BD0F61D26F0DF
:10086000070000F1080956E74020E4E78020D8E7B8
:100870000020D6E706F104094DE7284652E7206A32
:1008800000F002B8BD62000030BCBDE8C09F30B5CA
:1008900005460B462A4613F8014B12F8010B08B126
:1008A000A042F8D01CB1002802D06D1CF1E7284608
:1008B00030BD10B5431C02E010F8011B71B1810777
:1008C000FAD14FF0013202C88C1A8C4314EAC211DB
:1008D000F9D0C01A0A0603D0C01E10BDC01A10BD40
:1008E0000A0401D0801E10BD0902FCD0401E10BDBC
:1008F00040EA010370B59B072ED14FF00136042A60
:100900002AD308C810C99D1B9D43121F15EAC6159E
:1009100017D0D8B2E1B2401A50EA056110D198B2AE
:10092000A1B2401A50EA05410AD123F07F4024F0D9
:100930007F41401A50EA052102D1180EA0EB146045
:1009400070BDA342DBD018BA21BA884201D9012078
:1009500070BD4FF0FF3070BD0AB9002070BD10F8B7
:10096000013B11F8014B63B1A3420AD1521E08D0DA
:1009700010F8013B11F8014B1BB1A34201D1521EEB
:10098000EDD1181B70BD032A40F2308010F0030C2B
:1009900000F0158011F8013BBCF1020F624498BFD2
:1009A00011F801CB00F8013B38BF11F8013BA2F16F
:1009B000040298BF00F801CB38BF00F8013B11F0EA
:1009C000030300F00D82083AC0F0088051F8043BA0
:1009D000083A51F804CBA0E80810F5E7121D5CBFF7
:1009E00051F8043B40F8043BAFF30080D20724BF2A
:1009F00011F8013B11F801CB48BF11F8012B24BFBE
:100A000000F8013B00F801CB48BF00F8012B70470C
:100A100002F0FF0343EA032242EA024200F002B876
:100A20004FF000020429C0F0128010F0030C00F017
:100A30001B80CCF1040CBCF1020F18BF00F8012B95
:100A4000A8BF20F8022BA1EB0C0100F00DB85FEA63
:100A5000C17C24BF00F8012B00F8012B48BF00F82F
:100A6000012B70474FF0000200B51346944696469E
:100A7000203922BFA0E80C50A0E80C50B1F12001B1
:100A8000BFF4F7AF090728BFA0E80C5048BF0CC05F
:100A90005DF804EB890028BF40F8042B08BF7047BD
:100AA00048BF20F8022B11F0804F18BF00F8012B2F
:100AB000704770477047704709684A0501D540B2D2
:100AC0007047C905FCD500B2704709684A0501D5D1
:100AD000C0B27047C905FCD580B270472DE9F04718
:100AE0000D4699469246044600F12408016888069E
:100AF00004D5E06921F01001216000E00120A84246
:100B000001DD471B00E00027A1697A1902EB09000B
:100B1000081AA0612078C00602D42046FFF71AFD0B
:100B2000002608E0D4E901211AF806009047206A5F
:100B3000401C761C20624E45F4DB2078C0060AD5A6
:100B40002046FFF707FD06E0D4E901213020904759
:100B5000206A401C2062381EA7F10107F4DC07E080
:100B6000D4E9012118F805009047206A401C206252
:100B7000281EA5F10105F3DC2046FFF701FD2078D2
:100B8000000602D50220BDE8F0870120FBE71168CE
:100B90000268006A530501D508700AE0D30501D543
:100BA000088006E0130603D5C217C1E9000200E081
:100BB000086001207047000001694A1C0261087842
:100BC000704700B58FB0CDE901310021059105498D
:100BD0007944CDE9031011466846FFF791FD0FB047
:100BE00000BD0000E5FFFFFF0A6802F8010B0A6084
:100BF0007047D1E900239A4202D2531C0B60107057
:100C0000704710B5436913B1AFF3008001E0FFF7FF
:100C1000C8FC012010BD127800F124010A700022E6
:100C20004A700122EDE711684FF0FF32E9E700005A
:100C30002DE9FF5F15468A460446DFF8AC80F8448C
:100C40000027D8E900103E46CDE9001010E03AF840
:100C500016106A4602A800F0E4FC411C07D0217877
:100C6000890603D5E269391891420DD80744761CEC
:100C70002078800602D5E069B84205DDAE42E6DBA9
:100C80003AF816000028E2D1A069C01BA0612046F6
:100C9000FFF760FCD8E90010CDE90010002017E054
:100CA0003AF818106A4602A800F0BBFCB0F1FF3F0A
:100CB00081460BD000250DF1080B05E0D4E9012198
:100CC0001BF8050090476D1C4D45F7D308F1010056
:100CD000B0428046E4DB206A384420622046FFF7B9
:100CE0004FFC00F003B80000A25D00003FBCBDE86F
:100CF000C09F00002DE9F0418046D21D22F007027E
:100D00000025D2E90002F52915A614D0011E72F1C2
:100D1000000106DA0023D0EB030063EB020211A608
:100D200008E0D8F800108B0701D50FA602E04907AC
:100D300001D50EA601251146002408F1240704E080
:100D400000F080F830323A55641C50EA0102F7D1C5
:100D50002B46324621464046BDE8F041FFF7BEBE75
:100D6000000000002D0000002B000000200000000B
:100D700030B4002100F1240408E002F00705D20895
:100D8000303542EA4372DB086554491C52EA0305D8
:100D9000F3D10468002310A2250707D5A40600D4C8
:100DA00021B1C46901230DA2641EC46130BCFFF7E8
:100DB00095BE10B5044621461068FFF786FE024630
:100DC0002046BDE810400023D2E7D21D22F00701E3
:100DD000D1E90023CCE70000000000003000000053
:100DE00010B5203AC0F00B80B1E81850203AA0E8C6
:100DF0001850B1E81850A0E81850BFF4F5AF5FEAFA
:100E0000027C24BFB1E81850A0E8185044BF18C9AC
:100E100018C0BDE810405FEA827C24BF51F8043B53
:100E200040F8043B08BF7047D20728BF31F8023BA7
:100E300048BF11F8012B28BF20F8023B48BF00F83B
:100E4000012B704730B5B0F10A024FEA900E71F1F4
:100E500000034EEA817EB0EB0E0061EB91014FEA98
:100E6000101E4EEA017E10EB0E0041EB11114FEA0D
:100E7000102E4EEA016E10EB0E0041EB11214FEAED
:100E8000104E4EEA014E10EB0E0041EB114140189E
:100E900041F100014FEAD00040EA41704FEAD10130
:100EA00010EB80054FEA810444EA907444EB01049E
:100EB0006D1944EB0404521BA3414FF0000348BFDB
:100EC0000A3200D530BD401C41F1000130BD7047F1
:100ED0002DE9FF4F0C461E464FF0FF378BB0D2E98D
:100EE0000001DDF860800A908A46C1F30A5505B911
:100EF0003D46002108464FF00000BAF1000F00F413
:100F0000400005DA00EB80004FF4400101EA500098
:100F10004FEA9059B9F1010F00DDB9460A9850EA3D
:100F20004A000ED044F61050A5F2FF3545432F1469
:100F3000B8F1000F1ED07542291E1EDDC9F1000256
:100F40001CE0B8F1010F4FF0000001D0302103E0A8
:100F5000F24305E02154401CB042FBDB3046002246
:100F6000002121540B99C1F80880C1E900200FB07D
:100F700000F0BCB9BD1B6D1CDEE74A4600DA6942D1
:100F800006A800F0DFFB06AB93E8070003AB83E89D
:100F9000070050460A9900F09CFC8DE80700A0F578
:100FA00000501F3800900398002D0ADD42F21F0107
:100FB0004A460844002303A90390684600F005FF51
:100FC00009E0A0F500504A461F38002303A903900A
:100FD000684600F00FFF8DE807000004000C03D006
:100FE0004FF0FF30410800E01046B8F1000F03D089
:100FF0000022009215461EE0751E05D4FFF722FF61
:10100000303262556D1EF9D5B3460122084302D035
:1010100000227F1C04E02078302801D100227F1EAE
:10102000002A099784D01DE0112D07DAFFF70AFF87
:10103000303262556D1C50EA0102F5D1084302D0EE
:101040000098C8B10EE00021681E05E0235C625CD8
:1010500063542254401E491C8142F7DBAB46A81B57
:10106000401E0990002004F80B000B98099AC0F864
:101070000880C0E9002B7AE711264FF0000857E7F7
:101080002DE9F04F88460446D21D22F0070191B0A9
:10109000D1E90001CDE90A0102F056FD02460B98A4
:1010A000C00F01D02D2007E02068810701D52B203B
:1010B00002E0202101EAC000032A099001D0072A9A
:1010C00005DB03464146204600F0FCFA0BE12078A0
:1010D000800601D5E06900E00620B8F1650F814681
:1010E00006D0B8F1660F18D0B8F1670F70D131E0B3
:1010F0000020B9F1110F009001DB112301E009F18B
:1011000001030AAA01A90CA8FFF7E2FEDDE90C70B1
:10111000002609F10105834647E001204B46009077
:101120004FF000470AAA01A90CA8FFF7D1FEDDE99C
:101130000DB00C995D46002610B909F101000D189B
:10114000B9EB050003D4C0F1FF3609F10105A5EBA9
:1011500009002BE0B9F1010F01DA4FF0010900207D
:10116000B9F1110F0090484601DD112300E003465C
:101170000AAA01A90CA8FFF7ABFEDDE90C704D46E9
:1011800000268346207800070AD4AB4500DA5D4686
:1011900001A8012D04DD411911F8011C302907D0E7
:1011A0004F4502DA17F1040F04DA012082460FE0FE
:1011B0006D1EEEE7002F02DCED1B3E4403E0781CC1
:1011C000A84200DD7D1CB81B00F1010A4FF000476A
:1011D0002078000703D4AA4501DB4FF0FF3A002135
:1011E000B7F1004F0DF143088DF8431024D00220D1
:1011F0002B23002F01DA7F422D230A21021EA0F1AA
:10120000010000DC5FB197FBF1FC97FBF1F201FB01
:101210001C7C17460CF1300C08F801CDEEE7A8F164
:10122000010003702188090501D5452100E06521F1
:10123000A0F1010800F8011C09980FA9A1EB08070B
:10124000FF1D00B10120411901EBEA70A16938448A
:10125000081A401EA0612078C00602D42046FFF77D
:1012600079F9099828B1D4E901219047206A401CF6
:1012700020622078C00622D52046FFF76BF91EE0D9
:10128000002E04DBB34502DD01A8805D00E03020C4
:10129000D4E901219047206A401C2062761CAAF103
:1012A00001005FEA000A0AD100F008FAC06801688C
:1012B000405CD4E901219047206A401C2062281E2E
:1012C000A5F10105DCDC07E0D4E9012118F8010BE8
:1012D0009047206A401C2062381EA7F10107F3DC0A
:1012E0002046FFF74DF9032011B041E630BCBDE8C0
:1012F000C08F00002DE9F04F04460D46D21D22F0AC
:10130000070089B0D0E900974846394602F01CFC36
:101310000246F80F01D02D2307E02068810701D590
:101320002B2302E0202101EAC0038DF820300BB10D
:10133000012000E00020032A824601D0072A04DBB6
:101340002946204600F0BEF93FE12078800601D40E
:101350000D2500E0E569C7F30A560D2D49DA002195
:101360004FEA175B08464FF00000002F00F44000E2
:1013700007DA00EB80004FF4400100EBD07001EA87
:1013800060008115012901DD4FF0FF3100224FEA95
:10139000850CBCF1180F06D31346ACF118004FF0C2
:1013A0008052C24003E04FF4801323FA0CF30CF197
:1013B0000C0CBCF1200F04D3ACF1200C09FA0CF09A
:1013C00001E007FA0CF000294FF0004801DD18B9E0
:1013D0000FE00ED140450CD319EB02095F4121B952
:1013E000404502D19F4329EA0209BBEB175F00D0B9
:1013F000761C2088000502D57B48784402E07A48B4
:101400007844193808AA302302F80A30037C0AF11C
:101410000101002E0AF1020A53546A4602DC4FF021
:10142000300101E04FF031014FF001088DF800105C
:1014300002D0A6F2FF3603E059EA470100D06B4E16
:10144000002D02DC2178090704D54FF002082E2177
:101450008DF80110C44600210BE0C7F303433F01A0
:10146000C35C491C6D1E02F80830052908F101080B
:1014700001DA002DF1DC00210CE000EB1973491CAE
:101480001B786D1E082902F808304FEA091908F187
:10149000010801DA002DF0DC21688B0602D516E088
:1014A000A8F10108E04505DD02EB080313F8013C53
:1014B000302BF5D0B8F1000F09DD02EB080313F86B
:1014C000013C2E2B03D1090701D4A8F10108002DFE
:1014D00005DD3E2102F808106D1E08F10108407C70
:1014E000002E02F8080008F1010804DA2D207642E7
:1014F00002F8080002E02B2002F808000A214FF44D
:101500007A70864208F101080BDB96FBF0F330336A
:1015100002F8083096FBF0F308F1010800FB1366AF
:1015200001E0642E0CDB642096FBF0F3303302F80C
:10153000083096FBF0F308F1010800FB136601E0A8
:101540000A2E06DB96FBF1F0303002F8080008F1B5
:10155000010896FBF1F001FB1060303002F8080042
:10156000A16908F1010808EB050202EB0A00081A5C
:10157000A0612078C00602D42046FEF7EBFF216A66
:1015800008AE01EB0A00206204E0D4E9012116F85C
:10159000010B9047BAF1010AF7D22078C00602D5B4
:1015A0002046FEF7D7FF6E4609E016F8010B3E28ED
:1015B0000FD0D4E901219047206A401C2062B8F185
:1015C0000108F2D22046FEF7DBFF09B0032000F04D
:1015D0000FB8206A2844206203E0D4E901213020BA
:1015E00090476D1EEBD3F8E70156000002FCFFFFA9
:1015F00030BCBDE8C08F10B5436913B1AFF30080B4
:1016000001E0FFF715FB012010BD128800F1240155
:1016100082840022C2840122EDE711684FF0FF327C
:10162000E9E770B516460C46054600F03FF803683A
:1016300093F80101012806D0FF2C0FD8185D68B17E
:1016400001202C7070BDD3F807013246214603F209
:10165000071303442846BDE8704018474FF0FF3099
:1016600070BD754600F0EAF8AE460500694653467F
:1016700020F00700854618B020B5FEF7ABFEBDE8A8
:1016800020404FF000064FF000074FF000084FF0E9
:10169000000B21F00701AC46ACE8C009ACE8C0097A
:1016A000ACE8C009ACE8C0098D46704710B500F041
:1016B00005F8001D10BD00BFF15000000048704744
:1016C0009C2500202DE9F0411F46044603260168B1
:1016D000072A01F4006004DB08B116A505E016A591
:1016E00003E008B115A500E015A521F01000206069
:1016F000A069C01EA0610FB1401EA0612046FEF788
:1017000029FF4FB1D4E9012138469047206A401C97
:101710002062C01C206206E0206AFAE7D4E90121B9
:1017200015F8010B9047761EF8D22046FEF728FFE9
:10173000BDE8F0814E414E006E616E00494E46009C
:10174000696E66002DE9F047814616468AB0354835
:1017500078440DC88DE80D0032487844801C03ACF5
:101760000DC884E80D0041F69B300844372190FBFA
:10177000F1F290FBF1F5A5F1800501FB12041B3C91
:1017800002D56442012000E00020DFF898A08046E6
:101790000027FA44AAF1BE0A0EE0E0070AD032465A
:1017A000684607EB470101230AEB810100F022FBA9
:1017B0008DE8070064107F1C002CEED1194F7F4488
:1017C000AE3F19E0E80715D007EB04100DF1180A39
:1017D00090E80E008AE80E00C068F04201D1981926
:1017E00008903246012306A903A800F003FB03ABCF
:1017F00083E807006D10641C002DE3D14FF0010356
:1018000032466946B8F1000F03A802D000F0DDFAB5
:1018100001E000F0EFFAC9E90001C9F808200AB0B8
:10182000BDE8F0873C53000010B50446AFF30080DC
:101830002046BDE81040FEF748BD00000048704754
:101840007C2500204FF0013C50F8042B51F8043B5C
:101850009A4221D1A2EB0C03934313EACC1317D184
:1018600050F8042B51F8043B9A4215D1A2EB0C031B
:10187000934313EACC130BD150F8042B51F8043BDB
:101880009A4209D1A2EB0C03934313EACC13DBD0A9
:101890004FF00000704700BFD01A01BAB1FA81F1D1
:1018A00001F0180122FA01F0CB40C1F12001DBB2B6
:1018B000C0B2C01A2CFA01F3D11A914311EAC31134
:1018C000E6D1704701491820ABBEFEE726000200B2
:1018D00070475FEA400C08BF91F0000F4FEA8C237D
:1018E0004FEAC12243EA51514FEA1C5018BF00F59C
:1018F000F0404FEA300018BF41F000415FEA6C5CF5
:1019000000F02980BCF1FF3F08BF40F080407047E5
:10191000130C06BF12044FF0100C4FF0000C130E06
:1019200004BF12020CF1080C130F04BF12010CF1DA
:10193000040C930F04BF92000CF1020CD30F04BFF0
:1019400052000CF1010C11464FF00002A0F11F00F3
:10195000A0EB0C00704711F0004F08BF704731F04A
:1019600000413FF4D5AF0B0C06BF09044FF0100C3B
:101970004FF0000C0B0E04BF09020CF1080C0B0F0A
:1019800004BF09010CF1040C8B0F04BF89000CF19A
:10199000020CCB0F04BF49000CF1010CCCF1200369
:1019A000A0EB0C0022FA03F302FA0CF241EA030165
:1019B00000F10100704720F07F4C80EA030023F023
:1019C0007F47ACEB070303F57C5300F0004003F1C5
:1019D000FF032DE980494FEA154B09B44FEA144340
:1019E00025EA0B4E24EA03480FF2042606EB1327E0
:1019F00049083E785FEA320203FB0667C7F5000735
:101A000007FB06F64FEA54374FEAD64606F10206C0
:101A100007FB066CCCF1005C4FEA1C472CEA074C34
:101A200007FB06F40CFB06F504EB15464FEA961689
:101A300034BF00204FF000404FEAD13706FB07FCCF
:101A40004FEA1C4C0CFB0BF7D21B03FB0CF761EBB2
:101A500007010CFB0EF7B0EB074072EB17420CFBD3
:101A600008F734BFA2EB0742B2EB074261EB174124
:101A70004FEA0C444FEA910706FB07FC4FEA1C4C67
:101A80000CFB0BF7B0EBC74072EB573203FB0CF7C4
:101A900034BFA2EBC742B2EBC74261EB57310CFB3C
:101AA0000EF7B0EBC70072EB57720CFB08F734BFB0
:101AB000A2EBC702B2EBC70261EB5771039F4FEA7B
:101AC000816141EA921104EBCC044FEAD1374FEA2D
:101AD000826206FB07FC42EA90124FEA80604FEAFE
:101AE0001C4C0CFB0BF7D21B03FB0CF761EB070143
:101AF0000CFB0EF7B0EB074072EB17420CFB08F73C
:101B000034BFA2EB0742B2EB074261EB17414FEA49
:101B10008C554FEA910704EB9C2406FB07FC4FEA27
:101B20001C4C0CFB0BF7B0EBC74072EB573203FBBE
:101B30000CF734BFA2EBC742B2EBC74261EB57319F
:101B40000CFB0EF7B0EBC70072EB57720CFB08F7FB
:101B500034BFA2EBC702B2EBC70261EB577115EBC2
:101B60004C254FEA816141EA92114FEA82624FEAC5
:101B7000D13742EA901206FB07FC44F100044FEA19
:101B800080604FEA1C4C0CFB0BF7D21B03FB0CF7DD
:101B900061EB07010CFB0EF7B0EB074072EB17424D
:101BA0000CFB08F734BFA2EB0742B2EB074261EB34
:101BB000174115EB1C154FEA813141EA92414FEA7A
:101BC000823242EA90424FEA80304FEA0C7644F18A
:101BD000000448EA03434EEA0B484FF0000EB2EB14
:101BE000080C71EB030724BF624639464EEB0E0E1C
:101BF0004FF0000B0018524149414BEB0B0BB2EB7D
:101C0000080C71EB03077BF1000B24BF62463946D9
:101C10004EEB0E0E4FF0000B0018524149414BEBBA
:101C20000B0BB2EB080C71EB03077BF1000B24BF2D
:101C3000624639464EEB0E0E51EA020718BF46F0D7
:101C4000010616EB0E7655F1000254F1000103D5A2
:101C5000BDE88901BDE80088BDE88901BDE800480C
:101C6000B619524141EB0101A3F101037047808095
:101C70007F7E7D7C7B7A79787776767574737271E6
:101C800071706F6E6E6D6C6C6B6A6A69686867669E
:101C900066656464636362616160605F5F5E5E5D30
:101CA0005D5C5C5B5B5A5A595958585757565655A4
:101CB00055555454535352525251515050504F4F06
:101CC0004F4E4E4D4D4D4C4C4C4B4B4B4A4A4A4956
:101CD0004949484848474747474646464545454499
:101CE0004444444343434342424242414141002B26
:101CF0009C4630D477002BD01CB54FEA370703B48D
:101D00004FF010004FF01001BAF1000F06D0BCF1F7
:101D1000000FDCBF40F0080040F008014FF0000069
:101D20000FBCBDE810400BF1010BBBF1010F08BF68
:101D30005FEA170722BF12F1010211F101014FF012
:101D4000004143F1000300F0004043EA0000704707
:101D5000F9D35708D0E746EA064613F1400F4FEA99
:101D600016461FDD13F1200FDFBF16430A46002180
:101D700020335B42BED0C3F1200746EA064602FA92
:101D800007F74FEA164646EA0706C3F1200722FA8C
:101D900003F201FA07F721FA03F14FF0000342EAD8
:101DA0000702A7E746EA020646EA06464FEA164653
:101DB00046EA0106BCBF46EA0646360C4FF0000371
:101DC0004FF000024FF0000194E72DE9804C9A4655
:101DD000934670B491E8380007C831EA400C48BF18
:101DE00034EA430C03D5FFF7E6FDFFF780FFF0BCB4
:101DF000BDE8008C2DE9804C9A46934670B491E87A
:101E0000380007C810F0804F08BF13F0804F03D18F
:101E100000F005F8FFF76BFFF0BCBDE8008C20F088
:101E20007F4780EA030023F07F4C07EB0C03A3F508
:101E30007C5300F00040A3F1FE0392F0000F00F08D
:101E4000B38095F0000F00F077802DE901494FEA4B
:101E500011404FEA144621EA004800FB06FC24EA40
:101E6000064708FB06F607FB08F800FB07F718EB28
:101E700006484CEB164C4FEA124B18EB07484FEA5A
:101E800015464CEB174022EA0B4E0BFB06FC25EAED
:101E900006470EFB06F607FB0EFE0BFB07F71EEBD5
:101EA000064E4CEB164C4FF000061EEB074E4CEB6B
:101EB000174B18EB0B0840F1000018EB0E0B58EB1A
:101EC000000840F100008F1A4FF000013CBFC943E9
:101ED000661B14BFB5EB040C00213CBFC943F61BC5
:101EE0004FEA17444EEA8E0E27EA04454FEA1C4794
:101EF00004FB07622CEA074C05FB07F70CFB05F611
:101F000004FB0CFC16EB074642EB174216EB0C46A3
:101F100042EB1C421BEB060658EB0202414146EA2B
:101F20009E0601D5BDE80189B619524141EB010178
:101F3000A3F10103BDE801894FEA14454FEA1147B7
:101F400024EA054621EA074C05FB07F406FB07F7E0
:101F50000CFB06F105FB0CFC11EB074144EB1744AD
:101F60004FEA124711EB0C4144EB1C4422EA074CA8
:101F700005FB07F206FB07F70CFB06F605FB0CFC5E
:101F800016EB074642EB174216EB0C4642EB1C459C
:101F90006A1854F1000148BF7047B619524141EB2D
:101FA0000101A3F10103704795F0000F37D04FEA0C
:101FB00011424FEA144721EA024624EA074C02FB89
:101FC00007F106FB07F70CFB06F402FB0CFC14EB15
:101FD000074441EB17414FEA154714EB0C4441EB22
:101FE0001C4125EA074C02FB07F506FB07F70CFB33
:101FF00006F602FB0CFC16EB074645EB174516EB05
:102000000C4645EB1C42121951F1000148BF7047C4
:10201000B619524141EB0101A3F1010370474FEAA8
:1020200014454FEA114724EA054621EA074C05FB0F
:1020300007F106FB07F70CFB06F24FF0000605FB65
:102040000CFC12EB074241EB174112EB0C4251EB37
:102050001C4148BF7047921841EB0101A3F10103F5
:102060007047FEE7704772B6FEE700002DE9F04FBB
:10207000DFF8AC9100230325A9F1040B85B04FF0E4
:10208000010C0F2709F1040AABF1040EBFE000BFF9
:102090000CFA03F6324075D00C7904F00304012CDD
:1020A00001D0022C1BD1846800945C0005FA04F86E
:1020B0000494009C24EA08040094D1F80C80049C49
:1020C00008FA04F8009C48EA0408C0F8088044684C
:1020D000B4430E79C6F300169E40264346600C7941
:1020E000E443A4070AD0C4684FEA430805FA08F697
:1020F000B4438E6806FA08F62643C6600C7904F0ED
:102100000304022C10D1DC0800EB84040294246A3E
:102110005E074FEAD66807FA08F6B4430E6906FA76
:1021200008F62643029C266204684FEA430805FA33
:1021300008F6B4430E7906F0030606FA08F62643BD
:1021400006604C6814F4403F60D0364C266E46F072
:1021500001062666246E23F0030604F001040094B1
:10216000314C34440294A4689E074FEA167807FA6B
:1021700008F6B443B0F1904F05D02C4EB04204D1D4
:10218000012612E042E000260FE0294EB04201D1C4
:1021900002260AE0274EB04201D1032605E0264E72
:1021A000B04201D1042600E0072606FA08F62643CD
:1021B000029CA660D9F800604C46D1F80480964392
:1021C0005FEAC82800D516432660DAF80040564674
:1021D000D1F8048094435FEA882800D51443346022
:1021E000DBF800405E46D1F8048094435FEA88380B
:1021F00000D514433460DEF800407646D1F8048000
:1022000094435FEAC83800D5144334605B1C0A6805
:1022100032FA03F47FF43CAF05B000F00FB80000D1
:102220000804014000100240000001400004004882
:1022300000080048000C00480010004830BCBDE811
:10224000C08F426921EA02030A4043EA02418161E8
:1022500070470AB1816170478162704701488068A8
:102260007047000010000020024881680278114485
:10227000816070471000002010B50024032000F09A
:1022800099F80F2000F008F808B1012401E000F0EF
:1022900049F8204610BD000030B505461C4887B0FF
:1022A000016E41F400310166006E06A900F40030B1
:1022B000009001A800F0CCFA00F0FCFA1549164A8B
:1022C000B0FBF1F11548491E0260416040F2E7326F
:1022D0000021C0E903218160816100F002FE040059
:1022E00012D10E4800F030FE04000DD1192000F08C
:1022F00033F8102D07D200222946192000F03AF8B1
:102300000748056000E0012407B0204630BD00000A
:102310000010024040420F0000440140040200202F
:10232000140000200B4882B0016E41F001010166EB
:10233000016E01F001010091816D41F080518165D4
:10234000806D002200F0805000900F21901E02B09E
:1023500000F010B800100240002809DB00F01F0256
:10236000012191404009800000F1E020C0F80011F7
:1023700070470000F0B40E4B1B680C46C3F30223F9
:10238000C3F10705042D00D90425191D072901D221
:10239000002300E0DB1E012606FA05F1491E21405C
:1023A00099409E40761E16403143F0BC01F0E4BBDC
:1023B0000CED00E0064900F0070208684FF6FF0345
:1023C000184040EA0220034A1043086070470000AA
:1023D0000CED00E00000FA051649B0F5007F086832
:1023E000C0F3412009D0022805D0086820F4C0605D
:1023F00040F480600860002070470128FBD0086826
:1024000020F4C06040F4007008600B48322200687D
:1024100050430A4AB0FBF2F0401C00E0401E4A69FB
:10242000520501D50028F9D148694005E3D50320BC
:1024300070470000007000401C00002040420F0068
:102440000248006800F4C06070470000007000405F
:102450002DE9F84F044600270088A84D3E460005A8
:1024600015D5606C60B1B0F5000F04D0B0F5400F29
:102470002BD001270AE0E86840F48030E86024E0CF
:102480000021201D00F0ECFF07001ED03E46206812
:1024900080033AD5A86D4FF00008C00009D4A86D9C
:1024A00040F08050A865A86D4FF0010800F0805002
:1024B0000090DFF84CA2DAF8001041F48071CAF8FD
:1024C0000010FFF7CBFE814610E0D5F88800616C64
:1024D00020F440000843C5F88800D8E7FFF7BEFEA7
:1024E000A0EB0900022801D9032705E0DAF8000073
:1024F000C005F3D5002F7DD04FEA0706B8F1000FD5
:1025000003D0A86D20F08050A8652078C00707D0C0
:10251000D5F88800216A20F003000843C5F8880038
:102520002078800707D5D5F88800616A20F00C0074
:102530000843C5F888002078400707D5D5F88800FB
:10254000A16A20F030000843C5F888002078800692
:1025500007D5D5F88800E16A20F440600843C5F843
:1025600088002088800507D5D5F88800E16B20F425
:1025700040200843C5F888002088400507D5D5F8D5
:102580008800216C20F440100843C5F888002078AA
:10259000400607D5D5F88800216B20F44050084349
:1025A000C5F888002078000607D5D5F88800616B4B
:1025B00020F440400843C5F888002088C00507D5AE
:1025C000D5F88800A16B20F440300843C5F8880096
:1025D00020684FF0006700034FF0806850D5D5F8B1
:1025E0008800A16C20F040600843C5F88800A06C0A
:1025F000B84200E005E03BD1E86840F48010E860B4
:102600003EE0D5F8900010F4407014D0A16D8142E6
:1026100011D0D5F89000D5F8901020F4407041F416
:102620008031C5F89010D5F8901021F48031C5F8AC
:102630009010C5F89000C00711D0FFF70FFE0746B5
:1026400041F2883907E000BFFFF708FEC11B49458A
:1026500001D9032652E7D5F890008007F4D5D5F8C4
:102660009000A16D20F440700843C5F8900045E744
:10267000404505D10121201D00F0F2FE00B10646C3
:102680002068400317D5D5F88800E16C20F0406041
:102690000843C5F88800E06CB84204D1E86840F40B
:1026A0008010E86007E0404505D10121201D00F0C1
:1026B000D7FE00B106462088400411D5D5F8880021
:1026C000216D20F040500843C5F88800206DB0F11E
:1026D000805F05D10221201D00F0C2FE00B1064638
:1026E0002088000406D555F8880F616D20F08040E1
:1026F00008432860304600F005B800000010024092
:102700000070004018BCBDE8E08F00002DE9F047E4
:102710000F4605006BD0494E306800F00700B84204
:1027200009D2306820F0070038433060306800F08C
:102730000700B8425BD12878414C80070AD5A868C9
:10274000A16801F0F001884204D9A16821F0F001EC
:102750000143A1602878C0072CD06868032811D0F5
:10276000022812D0216898B1490500293FDAA168F2
:1027700021F003010143A160FFF770FD804641F2A3
:10278000883910E021688901EFE721688903ECE7C7
:102790008907EAE7FFF762FDA0EB0801494502D986
:1027A0000320BDE8F087A068696800F00C00B0EB7A
:1027B000810FEFD1287880070AD5A868A16801F0B9
:1027C000F001884204D2A16821F0F0010143A16028
:1027D000306800F00700B8420BD9306820F00700DD
:1027E00038433060306800F00700B84201D0012063
:1027F000D7E72878400705D5A068E96820F4E060AD
:102800000843A0602878000706D5A068296920F44D
:10281000605040EAC100A06000F05EF8A168094A7B
:10282000C1F30311515C01F01F01C8400649086063
:1028300006480068BDE8F047FFF72EBD00200240C3
:10284000001002405C6800081C00002014000020FA
:102850000F2202600C4A936803F0030343609368FD
:1028600003F0F0038360936803F4E063C36092684D
:102870004FF4E06303EAD20202610448006800F00A
:10288000070008607047000000100240002002406E
:102890000548064900688968054AC1F30221515C70
:1028A00001F01F01C84070471C00002000100240CA
:1028B0009C6800080548064900688968054AC1F314
:1028C000C221515C01F01F01C84070471C0000206C
:1028D000001002409C68000870B525490023184686
:1028E0008A68CC6812F00C0204F00306214C4FEA0F
:1028F000640509D00C2A05D0042A32D0082A00D158
:10290000284670BD012E10D10B681B0704D4D1F8E6
:102910009430C3F3032302E00B68C3F30313164E92
:1029200056F82330DAB10C2AEBD1C86800F0030066
:10293000022818D0032818D01846CA68CB68C2F3FA
:102940000212C3F306234343521CB3FBF2F2C868DE
:10295000C0F34160401C4000B2FBF0F070BD18466F
:1029600070BD204670BD2046E7E72846E5E7000039
:10297000001002400024F4006C6800082DE9F843C0
:1029800004006FD0FA4DA86800F00C06E86800F06B
:1029900003072078C00664D576B10C2E01D1012F33
:1029A0000AD0A069002828687AD040F00100286089
:1029B000FFF754FC80465DE02868800702D5A069D7
:1029C0000028DED0216A2868000703D5286800F0B7
:1029D000F00004E0D5F89400F02202EA10108142E1
:1029E00016D9084600F0D2FD00283BD1286840F0F7
:1029F000080028602868216A20F0F0000843286059
:102A00006868E16920F47F4040EA0120686016E0D0
:102A1000286840F0080028602868216A20F0F0004B
:102A2000084328606868E16920F47F4040EA01209B
:102A3000686026B9206A00F0A9FD0028D5D1FFF70B
:102A40004BFFA968CB4AC1F30311515C01F01F0190
:102A5000C840C9490860C9480068FFF71DFC002844
:102A60007ED12EE0CAE000BFFFF7F8FBA0EB080024
:102A7000022876D828688007F6D5286840F0080034
:102A800028602868216A20F0F00008432860686800
:102A9000E16920F47F4040EA0120686011E0FFE72F
:102AA00020F001002860FFF7D9FB804606E000BF58
:102AB000FFF7D4FBA0EB08000228DAD828688007CB
:102AC000F6D42078C00740D0082E18D00C2E01D1A3
:102AD000032F14D06068B0F5803F17D0B0F5A02F59
:102AE000286817D020F480302860286820F48020DF
:102AF00028606068E0B1FFF7B1FB804614E0286809
:102B0000800322D56068002878D01EE0286840F451
:102B10008030EDE740F480202860F7E7FFF79EFB68
:102B2000A0EB08006428A4D828688003F6D50CE040
:102B3000FFF794FB804605E0FFF790FBA0EB080051
:102B4000642896D828688003F6D4207880073BD57F
:102B5000042E11D00C2E01D1022F0DD0E06801E01F
:102B6000AAE1FFE0002828681ED040F480702860A9
:102B7000FFF774FB07460CE0286840050CD5E068B9
:102B80000028C1D008E000BFFFF768FBC01B022887
:102B900093D828684005F7D56868217C20F0F85064
:102BA00040EA016068600FE020F480702860FFF761
:102BB00055FB074605E000BFFFF750FBC01B02288E
:102BC000B1D828684005F7D42078000729D5606976
:102BD0000028D5F8940012D040F00100C5F8940008
:102BE000FFF73CFB074604E0FFF738FBC01B022859
:102BF00099D8D5F894008007F6D512E02BE120F0A3
:102C00000100C5F89400FFF729FB074605E000BF67
:102C1000FFF724FBC01B022885D8D5F89400800755
:102C2000F6D42078400766D5A86D0027C00008D4E8
:102C3000A86D40F08050A865A86D012700F0805075
:102C400000904F480168C90512D40168814641F4DB
:102C500080710160FFF702FB804605E0FFF7FEFA96
:102C6000A0EB080002287DD8D9F80000C005F5D5F2
:102C7000A068012816D00528D5F8900017D020F0BC
:102C80000100C5F89000D5F8900020F0040000BFC6
:102C9000C5F89000A06841F28839C0B1FFF7DEFAAC
:102CA00080460FE0D5F8900040F00100F0E740F0DA
:102CB0000400C5F89000F5E7FFF7D0FAA0EB080193
:102CC00049454FD8D5F890008007F5D50EE0FFF7BD
:102CD000C5FA804606E000BFFFF7C0FAA0EB080186
:102CE00049453FD8D5F890008007F5D41FB1A86DAD
:102CF00020F08050A8652078800628D5606A0028DA
:102D0000D5F8980012D040F00100C5F89800FFF700
:102D1000A5FA074605E000BFFFF7A0FAC01B02288E
:102D200020D8D5F898008007F6D510E020F00100F3
:102D3000C5F89800FFF792FA074604E0FFF78EFA0D
:102D4000C01B02280ED8D5F898008007F6D4A06AD8
:102D5000F0B3022816D00C2E7DD0286820F08070A9
:102D6000286000E0A7E0FFF779FA0446A6E000003B
:102D7000001002405C6800081C00002014000020C5
:102D800000700040E868E26A00F00301914228D137
:102D9000216B00F0700209011039914221D1626B60
:102DA00000F4FE41B1EB022F1BD194F8382000F063
:102DB0007841B1EBC26F14D1A18F00F4C002490871
:102DC0004905A1F5001191420BD194F8401000E0A3
:102DD0006AE04908490600F0C060A1F10071814233
:102DE0004BD00C2E73D02868400170D4286820F096
:102DF00080702860FFF732FA064604E0FFF72EFAEB
:102E0000801B022857D828688001F7D4F4E90B0109
:102E10006FF00F0202EB01110843218A52044908A6
:102E200002EB4151A26841EA02210843217D4FF0A3
:102E30007E42490802EB41610843217B40EAC160C0
:102E4000E968244A11400843E860286840F080702F
:102E50002860E86800E03AE040F08070E860FFF742
:102E6000FDF9044605E000BFFFF7F8F9001B022852
:102E700021D828688001F7D527E02868800124D46C
:102E8000286840F080702860E86840F08070E86052
:102E9000FFF7E4F9044604E0FFF7E0F9001B02281D
:102EA00009D828688001F7D50FE000BFFFF7D6F9F1
:102EB000001B022802D90320BDE8F883286880019E
:102EC000F4D4E86804490840E8600020F4E70120F1
:102ED000F2E700008C809D01FCFFEEFE704770471A
:102EE000704710B5040003D094F83D0010B107E01E
:102EF000012010BD002084F83C00204600F022F89C
:102F0000022084F83D00211D206800F0CFFB012045
:102F100084F8480084F83E0084F83F0084F84000BC
:102F200084F8410084F8420084F8430084F84400A7
:102F300084F8450084F8460084F8470084F83D0092
:102F4000002010BD7047000090F83D10012901D00D
:102F500001207047022180F83D100168CA6842F0E4
:102F60000102CA6000680B49884205D0B0F1804F69
:102F700002D00949884207D18168084A11400629D0
:102F800006D0B1F5803F03D0016841F00101016036
:102F900000207047002C0140004001400700010064
:102FA000704770B50446006801694FF00005C943D9
:102FB000890715D4C168C943890711D4E91E016185
:102FC00001202077206880698007204602D0FFF723
:102FD000E7FF04E000F0A7F8204600F0A5F8257709
:102FE00020680169C943490717D4C168C943490723
:102FF00013D46FF0040101610220207720688069FA
:1030000010F4407F204602D0FFF7CAFF04E000F032
:103010008AF8204600F088F8257720680169C943BE
:10302000090716D4C168C943090712D46FF0080113
:103030000161042020772068C0698007204602D003
:10304000FFF7AEFF04E000F06EF8204600F06CF8E9
:10305000257720680169C943C90617D4C168C943E7
:10306000C90613D46FF01001016108202077206891
:10307000C06910F4407F204602D0FFF791FF04E0C2
:1030800000F051F8204600F04FF8257720680169DC
:10309000C943C90708D1C168C943C90704D1891EFA
:1030A0000161204600F042F820680169C943090621
:1030B00009D4C168C943090605D46FF080010161D4
:1030C0002046FFF70CFF20680169C943C90509D4F0
:1030D000C168C943090605D46FF4807101612046B7
:1030E000FFF7FCFE20680169C943490609D4C1689D
:1030F000C943490605D46FF040010161204600F044
:103100001FF820680169C94389060BD4C168C94307
:10311000890607D46FF0200101612046BDE87040A8
:10312000FFF7DEBE70BD70477047000000680349BE
:10313000884201D1FFF798B8704700000044014071
:10314000704710B5040002D0A06F10B107E0012055
:1031500010BD002084F87400204600F025F82420DB
:10316000A0672068016821F001010160204600F09D
:1031700087FB0128ECD0606A10B1204600F0EEFA1F
:103180002068416821F4904141602068816821F005
:103190002A0181602068016841F001010160204638
:1031A000BDE8104000F03EBB30B59DB00446142190
:1031B00017A8FDF757FC5C216846FDF753FC16493C
:1031C0002068884226D1022400256846099500948B
:1031D000FFF73EF908B1FEF746FF1048816D41F454
:1031E00000318165816D01F400311C91C16C41F0A9
:1031F0000101C164C06C17A900F001001C900C20F3
:1032000081E8310003201A9007201B904FF0904076
:10321000FEF72CFF1DB030BD0044004000100240FE
:103220002DE9F8430446806F1F4616460D462028B8
:103230004FD1CDB1C6B194F87400012849D0012016
:1032400084F874004FF00008C4F880802120A06743
:10325000FFF704F8A4F850608146A4F85260A06813
:10326000B0F5805F03D004E00120BDE8F883206959
:1032700028B12E465FF0000584F8748010E0002627
:10328000FAE78021204600F0FBFBB8B9C6B116F87A
:10329000010B21680885B4F85200401EA4F85200C2
:1032A000B4F852004B464FF0000200970028E8D1D6
:1032B0004FF04001204600F0E3FB30B10320D4E79B
:1032C00035F8020BC0F30800E3E72020A0670020D8
:1032D000CBE70220C9E7FEE71CB50B4E8A244FF46A
:1032E00000554FF4FA7709A0CDE900400E4B0FA22C
:1032F00013A1032000F0BAFE29463046FEF7A1FFD5
:10330000384601F0D6FAEEE70008004868656C6CB4
:103310006F2120796F752063616E2075736520655C
:103320006C6F672100000000506800082E2E2F539C
:1033300072632F6672656572746F732E630000008E
:103340004E4F5F544147000030B5154D89B095E8A8
:103350000F008DE80F0001216A460846483D01F044
:1033600011FB104C5835206095E80F0004AD85E83E
:103370000F00012104AA084601F004FB084A60601E
:10338000483A0021084801F075FB054AA060243A3C
:103390000021064801F06EFBE06009B030BD00007E
:1033A0003068000800000020D932000819370008F2
:1033B00030B587B014216846FDF754FB1648C16C40
:1033C00041F00401C164C16C01F004010591C16CBC
:1033D00041F08001C164C16C01F080010591C16CB4
:1033E00041F00101C164C06C0C4D00F001004FF4CC
:1033F00000540590002221462846FEF72AFF0120AE
:1034000000210094CDE90101039169462846FEF7A9
:103410002DFE07B030BD000000100240000800483B
:103420000D4810B50B4901604FF4E13141600021B6
:1034300081600C22C160C0E904128161C161016236
:103440004162FFF77EFE002803D0BDE81040FEF782
:103450000ABE10BD0044004080010020FEE7FEE7E8
:103460002DE9F041444C05468846E0680026810776
:1034700028680DD0E16801F00301814216D1A8B19E
:10348000E0686968C0F30210401C88420ED120E059
:10349000012804D0022805D0032807D108E02168BC
:1034A000890701E021684905002907DB01265FE063
:1034B0002168890302D421684903F5E7E1686A6855
:1034C0006FF00F0321F0730103EB0212114301436C
:1034D000E160206820F080602060FEF7BFFE0746B4
:1034E00005E000BFFEF7BAFEC01B022837D82068EF
:1034F0000001F7D4B8F1000F18D0B8F1010F1DD0BA
:10350000287D4FF07E41400801EB4060A96840EA09
:1035100001202169194A114008432061206840F0C8
:1035200080602060FEF79AFE07461AE0A868297BB3
:10353000000240EAC1602169114AECE7288A11497A
:10354000400801EB4050A96840EA012021690E4A79
:10355000E1E700BFFEF782FEC01B022801D9032667
:1035600006E020680001F5D52069A96908432061BB
:103570003046BDE8F081000000100240FF80FFF9F6
:10358000FF80FF070000E0FFFF809FFFF8B51C4DA4
:1035900006460024A86DC00002D5FEF751FF0DE0DD
:1035A000A86D40F08050A865A86D00F08050009094
:1035B000FEF746FFA96D21F08051A965B0F5007FA7
:1035C00004D0802E07D94FF003040AE0802E08D9DA
:1035D000A02E01D804E001D1022402E0702E00D117
:1035E00001240848016821F00701214301600068B7
:1035F00000F00700A04201D00120F8BD0020F8BD76
:10360000001002400020024010B54FF0E020006999
:1036100002F0C2FE012803D0BDE8104002F036BA25
:1036200010BD10B596B044216846FDF71BFA142171
:1036300011A8FDF717FA4FF40070FEF7CDFE08B1A0
:1036400072B6FEE701210804CDE900100220032430
:103650000A90CDE90B4114210D910721CDE90E10FF
:1036600010906846FFF78AF908B172B6FEE70F209E
:10367000CDE911040020139014901590042111A895
:10368000FFF744F8002801D072B6FEE716B010BD6F
:103690000248016841F470010160704788ED00E064
:1036A0000148FFF77EBC00000402002070B50268EC
:1036B000164B4FF08046984201D0B04203D122F021
:1036C00070044A682243124C124D984205D0B04211
:1036D00003D0A04201D0A84203D122F44076CA68A8
:1036E00032434E6922F08002324302608A68C2622D
:1036F0000A688262984203D0A04201D0A84201D158
:10370000096901630121416170BD0000002C014085
:10371000004001400044014070B500F0AFFE20B110
:10372000BDE87040002001F0EAB90A4D4FF0FF36C5
:103730004FF4FE743146286801F0F6F80028F9D1FC
:103740002146054800F0E2FA0100F3D0024800F0FB
:10375000A1FEF5E704000020DC1A002090F82410F8
:10376000C90706D001684A68836A22F400321A4306
:103770004A6090F82410890706D501684A68C36A30
:1037800022F480321A434A6090F82410490706D583
:1037900001684A68036B22F480221A434A6090F859
:1037A0002410090706D501684A68436B22F40042D9
:1037B0001A434A6090F82410C90606D501688A6841
:1037C000836B22F480521A438A6090F82410890691
:1037D00006D501688A68C36B22F400521A438A60D6
:1037E00090F82410490611D501684A68036C22F448
:1037F00080121A434A60016CB1F5801F06D101683E
:103800004A68436C22F4C0021A434A6090F82410BC
:10381000090606D501684A68806C22F4002202433A
:103820004A607047F8B500260446C0F88060FEF78D
:1038300015FD0546206800686FF07E47000708D533
:103840002B4600224FF400112046009700F018F993
:1038500060B92068006840070AD52B4600224FF463
:1038600080012046009700F00BF908B10320F8BD55
:103870002020A067E067266684F874600020F8BD09
:103880002DE9F0410446016880682269E36910432C
:10389000626900251A431043714F0A68714B1A4040
:1038A00002430A6020684168E26821F440511143F4
:1038B00041602168A069B94201D0226A10438A6838
:1038C00022F4306202438A606749236867488B426A
:1038D0000DD1D0F8880010F0030006D0012847D0A1
:1038E000022843D0032830D144E001212EE0604972
:1038F0008B420BD1D0F8880010F00C0034D0042893
:1039000036D0082832D00C281FD133E059498B42D9
:103910000BD1D0F8880010F0300025D0102827D027
:10392000202823D0302810D124E0BB420DD1D0F87C
:10393000880010F4406017D0B0F5806F18D0B0F553
:10394000006F13D0B0F5406F14D010214A4A002602
:103950004FF40040BB422FD171B102290FD004298E
:103960000FD0082973D10FE00021EFE70221EDE726
:103970000421EBE70821E9E7FEF78AFF03E01046A0
:1039800002E0FEF7A9FFE8B3626802EB4201814260
:103990005DD8B0EB023F5AD8010E03025008181848
:1039A00071410023FCF728FD344AA0F54071914293
:1039B0004DD82168C8604BE0E3694FF6EF7783424A
:1039C00028D1092943D2DFE801F005080B420D4256
:1039D00042421000FEF75CFF06E0FEF76BFF03E0DB
:1039E000104602E0FEF778FF60B14100606801EB2D
:1039F0005001B1FBF0F0A0F11001B94227D84FF609
:103A0000F07100E024E00140C0F34200014320686F
:103A1000C1601DE009291AD2DFE801F005080B1981
:103A20000D1919191000FEF733FF06E0FEF742FFEB
:103A300003E0104602E0FEF74FFF48B1616800EB7B
:103A40005100B0FBF1F0A0F11001B94205D90125F8
:103A500066662846A666BDE8F08180B2A9E7000048
:103A600000800040F369FFEF003801400010024081
:103A700000440040004800400024F400FFFC0F0018
:103A80002DE9F0479A4617460E4604464FF00009C6
:103A90004FF02008089D4AE0681C48D0FEF7DEFB86
:103AA000A0EB0A00A8422AD84DB320680168490754
:103AB0003DD5C069C043000539D421684FF400608A
:103AC0000862206850E8001F21F4D07140E800121D
:103AD000002AF6D12068083050E8001F21F00101CB
:103AE00040E80012002AF5D1C4F87880C4F87C8040
:103AF000C4F8808084F874900320BDE8F0872168C2
:103B000051E8000F20F4D07041E80002002AF6D1FD
:103B10002068083050E8001F21F0010140E8001241
:103B2000002AF5D1C4F87880C4F87C80E2E72068E8
:103B3000C06936EA000004D00020B842ACD00020B2
:103B4000DBE70120F9E7FEE703B4019841000098A4
:103B500050EAC12018BF04204A0D18BF40F00100F0
:103B600040F2FF72B2EB515F08BF40F00200012843
:103B700008BF052002B070470907090E002804DBC2
:103B800000F1E02080F80014704700F00F0000F111
:103B9000E02080F8141D704730380A2801D2012037
:103BA00070470020704710B500F026FAFF21002072
:103BB00000F0E4FC0721012000F0E0FC07210220D6
:103BC00000F0DCFC0721032000F0D8FCA721042032
:103BD00000F0D4FCA721052000F0D0FCBDE8104087
:103BE00000F02CBD70B50C46064600F077F8D0F515
:103BF000C06013D0174DA04202D804460120A8701F
:103C0000686815490219B2F5C06F09D20844224606
:103C10003146FCF7B8FE6868204415E0002416E041
:103C2000C0F5C06208443146FCF7ADFE6868C0F5D7
:103C3000C061621A311A084801F5C061FCF7A3FEA1
:103C400068682044A0F5C06068600020E8702046E5
:103C500070BD0000D40000207C1F00202DE9F04141
:103C6000040006D0184E306884420AD10020BDE816
:103C7000F081502080F31188BFF34F8FBFF36F8F17
:103C8000FEE701F00FFC6569776BB66B01F02AFC6B
:103C9000BD4201D0B54201D10220E8E70B48854280
:103CA00008D1A06A0028F7D194F858000128F3D071
:103CB0000320DCE705481438854202D00DB101200D
:103CC000D5E70420D3E700002000002040070020B3
:103CD0000149487070470000D40000200A48D0E92C
:103CE0000112914201D9881A70478378C07818432D
:103CF00003D033B14FF4C0607047501AC0F5C060B4
:103D00007047002070470000D40000202DE9F041EA
:103D10000E468046002400F065FBFFF7DFFF07003A
:103D200033D096B3B74200D806461A4D1A49A86850
:103D30008219B2F5C06F07D201443246404600F006
:103D400053F80446A96817E0C0F5C0620144404634
:103D500000F04AF8A9680446C1F5C062A2420BD13E
:103D6000321B08EB04000C4900F03EF80444A8683C
:103D70002044A0F5C06000E00819A860A74201D166
:103D80000120E8700CB10020A87000F051FB204623
:103D9000BDE8F081D40000207C1F002003490020F2
:103DA0000A78002A01D101220A707047D40000204D
:103DB0000846094910B549780029114607D0FFF790
:103DC00011FF002807D0BDE8104000F007B8BDE89B
:103DD000104000F05FBB10BDD40000200148006817
:103DE00000F01CBE040000202DE9F047DFF89CA085
:103DF000DFF89C9086B017460C4606004FF002088C
:103E00004FF0000506D1D9F800302BB146225146BB
:103E100020A098477CB133E01EA202924620CDE953
:103E200003A01EA3CDE90003184B25A22EA100205C
:103E300000F01CF9FEE7D9F8003023B147221349FE
:103E40002BA098471CE02AA202924720CDE903A0AC
:103E500012A3CDE900030D4B19A223A1002000F00D
:103E600005F9FEE714F8010B6D1C06F8010B45453A
:103E700006D3A4EB080042461EA1FCF739FD08B1A9
:103E80007F1EEFD206B02846BDE8F0879269000891
:103E9000A00000206C696E650000000028257329D1
:103EA0002068617320617373657274206661696C48
:103EB00065642061742025733A256C642E0000002F
:103EC0002E2E5C555345525C4150505C45617379D0
:103ED0006C6F676765725C7372635C656C6F675F5C
:103EE0007574696C732E6300656C6F670000000069
:103EF0006C6F67000D0A0000F0B585B0070007D1B0
:103F000021484FF4EF720368B3B1204920A09847CD
:103F1000244D0024052695F89C0000281BD000F0B5
:103F200061FA00BF04EB440000EB0410411991F862
:103F30003500012812D017E01448CDE903020092A1
:103F400013A119A3CDE90131034620A228A1002025
:103F500000F08CF8FEE705B03046F0BD1022384680
:103F60002431FCF7C5FC30B1641CE4B2052CD9D374
:103F700000F05EFAEFE704EB440000EB0410284485
:103F800090F82360F4E70000A000002036690008E4
:103F900074616720213D202828766F6964202A29D2
:103FA00030290000D81E002028257329206861735D
:103FB00020617373657274206661696C6564206149
:103FC000742025733A256C642E0000002E2E5C555B
:103FD0005345525C4150505C456173796C6F676723
:103FE00065725C7372635C656C6F672E63000000C2
:103FF000656C6F67000000002DE9F0411A4D00204C
:1040000095F89C1001292DD000F038FA002829D10C
:10401000FFF7C4FE060025D1012000F0F3F90027C8
:1040200085F89F7085F8A070012085F8A100052013
:1040300000F048FA0024B84604EB440000EB0410FA
:10404000471907F124001121FCF7EAFC07F8238F38
:10405000641CE4B287F81280052CEDD3012085F8AA
:104060009C003046BDE8F081D81E00200FB42DE939
:10407000F04F06468BB08B460846FCF71AFC00242E
:104080000746A14608940994059406940794052EC2
:1040900008D9AA484FF40F720368002B7DD0A849B5
:1040A000A8A09847AE4D95F89D00002876D02878B6
:1040B000B04273D35846FFF71FFFB0426ED3691C5E
:1040C0005846FCF7E4FB002868D00DF1680A00F0C0
:1040D00089F9A84695F8A100A5F5007570B12946A3
:1040E000A0A2204600F0F4FA0446944829191C3096
:1040F00050F82620204600F0EBFA04440121304617
:1041000000F062FB40B18D482919001D50F82620AF
:10411000204600F0DDFA04440221304600F054FB52
:10412000C8B129195A46204600F0D2FA0444082F93
:104130000BD8C7F10801202205A8FCF769FC291952
:1041400005AA204600F0C4FA0444291986A2204694
:1041500000F0BEFA04441C21304600F035FB002874
:104160004BD0291981A2204600F0B2FA0444042160
:10417000304600F029FBA8B100F078F90246291971
:10418000204600F0A5FA04441821304600F01CFB3C
:1041900040B1291974A2204601E04EE0C9E000F0C8
:1041A00097FA04440821304600F00EFB90B100F06D
:1041B0004FF902462919204600F08AFA04441021DA
:1041C000304600F001FB28B1291967A2204600F013
:1041D0007FFA04441021304600F0F6FA38B100F0BE
:1041E0003FF902462919204600F072FA04442919C1
:1041F0005FA2204600F06CFA0444E021304600F053
:10420000E3FA002860D029195AA2204600F060FA8B
:1042100004442021304600F0D7FA002827D029197D
:104220002046169A00F054FA04444021304600F02B
:10423000CBFA88B1291950A215E04148CDE9030213
:10424000009240A14DA3CDE90131034654A25DA1E6
:104250000020FFF70BFFFEE78021304600F0B4FAA4
:1042600028B1291940A2204600F032FA04448021E6
:10427000304600F0A9FAB0B154A2052108A8189B55
:10428000FCF74CF9291908AA204600F021FA044449
:104290004021304600F098FA28B1291932A2204670
:1042A00000F016FA04444021304600F08DFA28B19F
:1042B00029192046179A00F00BFA0444291944A240
:1042C000204600F005FA0444C4F50071281953464D
:1042D000199AFCF709F904444FF40072944204D887
:1042E000002802DBA01D904201D94FF4FD7498F81C
:1042F0001200474640B11A4905F804901231A1F264
:104300001220FCF7C4FA90B197F8A10028B129193E
:1043100030A2204600F0DCF9044429192FA22046DF
:1043200000F0D6F902192E493046FFF741FD00F0A2
:104330007FF80BB0BDE8F00F5DF814FBA000002083
:104340004E6900086C6576656C203C3D20454C4FFD
:10435000475F4C564C5F564552424F534500000054
:10436000D81E00201B5B0000200000005B00000046
:104370005D200000280000003A0000002825732975
:104380002068617320617373657274206661696C63
:1043900065642061742025733A256C642E0000004A
:1043A0002E2E5C555345525C4150505C45617379EB
:1043B0006C6F676765725C7372635C656C6F672EA8
:1043C00063000000656C6F6700000000256C6400EE
:1043D000290000001B5B306D000000000D0A00008A
:1043E000D81C002070B5064C012594F89E0020B121
:1043F00000F05AF884F8A05070BD84F89F5070BD4A
:10440000D81E00200949002881F89E000DD00748D9
:1044100091F8A01090F89F0019B1002805D100F084
:104420004BB8002801D000F03FB87047D81E0020DC
:1044300070B5064C002594F89E0020B100F03CF8C1
:1044400084F8A05070BD84F89F5070BDD81E002025
:1044500000A070477069643A3130303800000000C5
:1044600000A070477469643A3234000000A07047BD
:1044700031303A30383A313200000000044810B58B
:104480000068002408B100F0C9FA204610BD000001
:10449000000000208AB201464FF6FF730148FEF784
:1044A000BFBE00008001002002484FF0FF310068CD
:1044B00000F03ABA000000200148006800F0AEBAEF
:1044C0000000002010B586B00446052807D90D4825
:1044D0004FF4AC72036833B10B490CA098471248F3
:1044E000047006B010BD0848CDE90302009207A190
:1044F0000EA3CDE90131034615A21EA10020FFF74E
:10450000B5FDFEE7A00000200A6900086C6576652D
:104510006C203C3D20454C4F475F4C564C5F564508
:1045200052424F5345000000D81E00202825732911
:104530002068617320617373657274206661696CB1
:1045400065642061742025733A256C642E00000098
:104550002E2E5C555345525C4150505C4561737939
:104560006C6F676765725C7372635C656C6F672EF6
:1045700063000000656C6F670000000030B585B017
:104580000D460446052807D90E484FF49F7203686C
:104590004BB10D490DA09847134800EB8400C0F8BB
:1045A000845005B030BD0848CDE90302009207A150
:1045B0000EA3CDE90131034615A21EA10020FFF78D
:1045C00055FDFEE7A0000020ED6800086C657665EB
:1045D0006C203C3D20454C4F475F4C564C5F564548
:1045E00052424F5345000000D81E00202825732951
:1045F0002068617320617373657274206661696CF1
:1046000065642061742025733A256C642E000000D7
:104610002E2E5C555345525C4150505C4561737978
:104620006C6F676765725C7372635C656C6F672E35
:1046300063000000656C6F67000000000EB50B485A
:1046400090F89C10002910D0012180F89D10084698
:10465000FFF73EFB06A208A1F4208DE80700104BEF
:1046600010A219A10320FFF701FD0EBDD81E0020E6
:10467000322E322E39390000456173794C6F6767ED
:1046800065722056257320697320696E69746961AB
:104690006C697A6520737563636573732E0000001F
:1046A000A46800082E2E5C555345525C4150505C66
:1046B000456173796C6F676765725C7372635C6583
:1046C0006C6F672E63000000656C6F670000000070
:1046D0002DE9F043DFF88C90DFF88C8085B00D0079
:1046E00006461446174606D1D8F800302BB12C22C6
:1046F00049461EA098477CB115E01CA202922C20CE
:10470000CDE903901AA3CDE90003164B21A22BA1FA
:104710000020FFF7ABFCFEE7D8F800307BB12D227C
:10472000104928A098474FF400722078B0B1314664
:10473000761C914212D205F8010B641CF5E721A208
:1047400002922D20CDE9039009A3CDE90003054B8A
:1047500010A21AA10020FFF789FCFEE705B0E01BBC
:10476000BDE8F08386690008A0000020647374002F
:104770002825732920686173206173736572742022
:104780006661696C65642061742025733A256C64E8
:104790002E0000002E2E5C555345525C4150505C5B
:1047A000456173796C6F676765725C7372635C6592
:1047B0006C6F675F7574696C732E6300656C6F67EF
:1047C000000000007372630030B585B00D460446EA
:1047D000052807D9104840F2DB22036863B10F496E
:1047E0000FA09847154800EB8400D0F884002840BB
:1047F00000D0012005B030BD0848CDE90302009289
:1048000007A10FA3CDE90131034616A21EA1002086
:10481000FFF72CFCFEE70000A00000205A6900080A
:104820006C6576656C203C3D20454C4F475F4C568F
:104830004C5F564552424F5345000000D81E0020A1
:104840002825732920686173206173736572742051
:104850006661696C65642061742025733A256C6417
:104860002E0000002E2E5C555345525C4150505C8A
:10487000456173796C6F676765725C7372635C65C1
:104880006C6F672E63000000656C6F6700000000AE
:10489000FDF7F2FCFEF7C5FEFEF78AFDFEF7C0FD50
:1048A000FFF781F900F012F8FEF74EFD00F020F856
:1048B000FEE710B5EFF3058111B16FF0050403E0D9
:1048C000002408B100F0F2FE204610BDEFF3058091
:1048D00010B16FF0050070470448016811B14FF046
:1048E000FF307047012101600020704770000020F8
:1048F00010B5EFF3058010B16FF0050010BD08484A
:104900000168012902D04FF0FF3010BD054A002197
:1049100082F8141D0221016000F0C0FF002010BDCC
:10492000700000200BE000E0F8B50D460024211FC8
:104930004E1C002804D000BFEFF30582A2B10DB1D8
:104940000C461BE000216A46009101F085FB01281E
:1049500013D1009890B10A494FF080500860BFF31E
:104960004F8FBFF36F8F09E0294601F0C3FB012889
:1049700004D015B16FF0010400E034462046F8BDC4
:1049800004ED00E0F8B5144603460E464FF000056E
:10499000EFF3058098BB93B39E423DD84CB1A0681D
:1049A0000028E06803D0502836D3012002E008B187
:1049B00032E00020012B05D010B31846A26801F0A8
:1049C00098F820E040B10320009000221146012019
:1049D000A36801F0CFF804E003220021012001F0D8
:1049E000A8F8050018D086B100231A46194601F030
:1049F00039F9012809D0284600F00AFE00250BE00D
:104A0000184601F059F8050006D00CB1216800E005
:104A10000021284600F0E8FD2846F8BD38B50024FE
:104A2000E51E00280BD000BFEFF30581A9B10021DE
:104A30000091694601F025FA012815D102E06FF0D6
:104A4000030412E0009880B109494FF080500860DB
:104A5000BFF34F8FBFF36F8F07E000231A4619464D
:104A600001F000F9012800D02C46204638BD000096
:104A700004ED00E02DE9FF414FEA01034FF000058E
:104A8000EFF30581039549BB40B38027182100242B
:104A90004AB3166806B1344696691EB13146761E91
:104AA000382E02D21679F60703D0002004B0BDE8F4
:104AB000F081566906B1B708D2F808C0BCF1000F02
:104AC0000DD0D5685C2D18D312693AB136B18DE896
:104AD00006103A46214601F033FC03900DE0D668FB
:104AE0005EB912694AB903AACDE90012BAB22146E9
:104AF00001F0F6FB012800D003950398D6E770B5C6
:104B00000546EFF3058010B16FF005040FE04DB1DD
:104B10002846FFF7A3F8042807D00024284600F011
:104B2000EBFD04E06FF0030401E06FF002042046A7
:104B300070BD00002DE9F041134C0F460546E668B4
:104B40002068001D00F052FC681C07D137B12168B5
:104B5000BDE8F0410D48091D00F098BC20683544BF
:104B6000B5424560216805D2A06BBDE8F041091D42
:104B700000F074BC606B091D00F070FCA06A8542F7
:104B800000D2A562BDE8F08120000020400700208F
:104B90002DE9F041054600F085FC2D4CA068401C35
:104BA000A06020682B4F10B1606930B32BE0256006
:104BB000A068012827D1002606EB860007EB8000BD
:104BC00000F03EFC761C382EF6D3234800F038FC6B
:104BD0002148143000F034FC1F48283000F030FC2D
:104BE0001D483C3000F02CFC1B48503000F028FCE5
:104BF000194860631430A06305E02068E96AC06A60
:104C0000884200D82560606A401C60626864E86A77
:104C10002169884200D9206100EB800007EB800009
:104C2000291D00F033FC00F05DFC606900280CD009
:104C30002068E96AC06A884207D208494FF080506C
:104C40000860BFF34F8FBFF36F8FBDE8F0810000A6
:104C50002000002090020020F006002004ED00E07B
:104C600038B500F01FFC104C2068C8B90F4800F0A0
:104C7000E7FB0E48143000F0E3FB0C48E060143012
:104C800020610A4B0020F03B009003F150021021FC
:104C90000A2000F06FFF206010B105A100F0A4FC15
:104CA000BDE8384000F01EBC5C0000204408002035
:104CB000546D72510000000030B4026C0B46002AA3
:104CC0000BD0C1681144C1608468A14201D301685E
:104CD000C16030BC1846FBF756BE30BC70472DE9AA
:104CE000F041856B174604460026026C82B1C7B1BD
:104CF000E068FBF748FEE168206C091AE160226871
:104D0000914202D2A168081AE060022F16D017E083
:104D10002068A8B9A06801F0B7FB06460020A06093
:104D20000EE06068FBF72FFE216C6068084460604D
:104D3000A168884204D32068606001E005B16D1E5F
:104D40006D1CA5633046BDE8F08110B5044690F8AF
:104D5000590058B101280CD002280FD0502080F300
:104D60001188BFF34F8FBFF36F8FFEE7206B00F00A
:104D7000CDFB2046BDE8104000F0C8BB10BD0000D0
:104D80000F4840F6B831420705D0C01D0C4A20F04C
:104D90000700821A891A0B4A00230144C2E9000362
:104DA0000839183A21F0070111604B600B600B1AAB
:104DB000C0E9001393604FF00040536050617047AA
:104DC000240F00208C000020144E154CA6F29C47A6
:104DD0004FF08058DFF84C9012E000BF00F062FB0B
:104DE000F068C568281D00F001FBA068401EA060A7
:104DF0006068401E606000F075FB2846FFF7A5FF65
:104E000060680028EAD138680128F9D9C9F800801B
:104E1000BFF34F8FBFF36F8FF2E700002C07002026
:104E20002000002004ED00E070B51D46049C51B147
:104E3000C4F80020C4E90F010121204600F0CEFE95
:104E400084F84C5070BD2460F4E700002DE9F05F59
:104E50008846DDE90B941546834691009A460A9EE2
:104E6000A522206BFBF7D4FD6FF00301206B01EB53
:104E70008501084420F00707780707D0502080F309
:104E80001188BFF34F8FBFF36F8FFEE70025B8F196
:104E9000000F0FD05FF00000221818F8001082F801
:104EA000341018F8001011B1401C1028F4D384F805
:104EB000435001E084F83450382E00D33726E662A0
:104EC000C4E91365201D00F0C6FA04F1180000F0D3
:104ED000C2FA2461C6F138006462A061656584F895
:104EE000585052465946384600F06AFA2060B9F1E7
:104EF000000F01D0C9F8004000F000B830BCBDE898
:104F0000C09F000030B5114900E011460A68824296
:104F1000FBD34B685C18844203D140681844486056
:104F2000084643681C18944209D1084C183C246870
:104F3000A24209D052681A4442600A6812680260AC
:104F4000814200D0086030BD0460F9E78C00002089
:104F500070B5002441600B4D0061914206D8D11A12
:104F60008269914206D2011D286907E09A4203D264
:104F7000994201D3012403E0011DE86800F06EFAB4
:104F8000204670BD5C00002010B5044600F08AFA8F
:104F9000A06B28B15FF0000400F0A4FA204610BD19
:104FA0000124F9E730B589B03C4D6EE00498002843
:104FB00006DADDE90601059A90470498002864DBCB
:104FC000069C606910B1201D00F010FA03A800F0E3
:104FD000D7F8024604980A2857D2DFE800F0050502
:104FE000052D334A05052D3394F8280040F00100C3
:104FF00084F828000599A069059B01442046FFF725
:10500000A7FF68B3216A2046884794F82800400724
:105010003BD5002000900598A1690023421819464D
:10502000204601F077FBD8B9502080F31188BFF3F8
:105030004F8FBFF36F8FFEE714F8280F20F00100A9
:10504000207022E094F8280040F0010084F8280045
:105050000598A06128B1811813462046FFF778FF14
:1050600013E0502080F31188BFF34F8FBFF36F8F91
:10507000FEE794F82800810703D4204600F046FAA2
:1050800003E020F0010084F82800002204A9286829
:1050900000F046FF002889D109B030BD5C00002037
:1050A0002DE9FC410F46054600F03CFC01A800F04C
:1050B00067F80446019818B101F09AFABDE8FC813E
:1050C000254EAFB130690068D0B30027291B3A469E
:1050D000306800F0C9FA01F08BFA0028EED11F49C0
:1050E0004FF080500860BFF34F8FBFF36F8FE5E73D
:1050F000A542EBD801F07CFAF0682746C068C46886
:10510000201D00F073F994F82800410719D5A06913
:105110002B4641193A462046FFF71AFFA8B1002056
:105120000346014600902A46204601F0F3FA60B992
:10513000502080F31188BFF34F8FBFF36F8FFEE7CE
:1051400007E020F0010084F82800216A2046884703
:10515000B4E70127BAE700005C00002004ED00E09E
:105160000648416B096829B1416BC968C96849683B
:10517000816270474FF0FF31FAE700002000002005
:1051800070B5054601F016F9064E0446B068844233
:1051900003D200F009F8012000E00020286020463A
:1051A000B46070BD5C000020F8B5194D20E0C06807
:1051B000C4680668201D00F019F9216A2046884756
:1051C00094F82800400713D5A0693044B04206D9AE
:1051D00024616060211DE86800F040F908E00020CB
:1051E0000346014600903246204601F093FA38B15A
:1051F000E86801680029DAD12969C5E90310F8BD1A
:10520000502080F31188BFF34F8FBFF36F8FFEE7FD
:105210005C00002008484068401C4FF0500080F3BC
:10522000118804D0BFF34F8FBFF36F8FFEE7BFF33A
:105230004F8FBFF36F8FFEE794000020074CE068AC
:10524000016841B1C0680021D0F80000FFF728FFD5
:10525000FFF7A8FEF3E701210020F7E75C0000203C
:105260002DE9F041044600F01DF994F9455004F190
:10527000240609E0606A48B1304601F081F908B1BE
:1052800000F08AFA6D1E6DB2002DF3DC4FF0FF3690
:1052900084F8456000F026F900F004F994F94450D0
:1052A00004F1100709E0206948B1384601F068F9B7
:1052B00008B100F071FA6D1E6DB2002DF3DC84F8B8
:1052C0004460BDE8F04100F00DB900002DE9F04167
:1052D0000546002700F026FB324E306808B9FFF77C
:1052E0004FFD706905424ED1C5B3083568070ED031
:1052F00005F00700C0F108000544680707D05020FA
:1053000080F31188BFF34F8FBFF36F8FFEE72DB38C
:105310007068854237D82348183001460C6801E090
:1053200020460C466168A94202D221680029F7D1C3
:1053300031688C4227D007682168016060680837AF
:10534000411B10290FD96019420708D0502080F363
:105350001188BFF34F8FBFF36F8FFEE713E04160FB
:105360006560FFF7CFFD61687068401A7060B268D1
:10537000904200D2B060706901430020C4E900018E
:10538000F068401CF06001F033F9780707D0502036
:1053900080F31188BFF34F8FBFF36F8FFEE738465E
:1053A000BDE8F081740000200449086818B108685D
:1053B000026D521C02650868704700002000002042
:1053C00010B5031F4FF080741C601B1F21F00101FA
:1053D0001960191F044B0B6014390A60091F6FF024
:1053E000020244380A6010BD15520008D0E90132AB
:1053F00001699A60D0E901235A604A68824201D16A
:1054000082684A60002202610868401E08600868DD
:1054100070470000034B036003F15C0008608020CC
:10542000106070476C080020044B036003F15C00BF
:1054300008604FF48070106070470000C80A0020B8
:1054400000F108014FF0FF32C0E90112C1600161B3
:1054500000210160704700210161704730B50B6881
:105460005A1C02D000F1080202E0026904E0224660
:10547000546825689D42FAD953684B6099608A60E8
:10548000516008610168491C016030BD42684A6092
:1054900093688B6093685960916008610168491C4A
:1054A00001607047502080F31188BFF34F8FBFF326
:1054B0006F8F0A494868401C486001280CD1084891
:1054C000006810F0FF0F07D0502080F31188BFF361
:1054D0004F8FBFF36F8FFEE77047000094000020EE
:1054E00004ED00E00849486828B1401E486001D139
:1054F00080F311887047502080F31188BFF34F8FDD
:10550000BFF36F8FFEE700009400002070B5002805
:105510002AD0164DA0F1080460686969084207D1D5
:10552000502080F31188BFF34F8FBFF36F8FFEE7DA
:1055300022683AB1502080F31188BFF34F8FBFF338
:105540006F8FFEE78843606000F0ECF9606869687F
:10555000084468602046FFF7D5FC2869401C286194
:10556000BDE8704001F044B870BD00007400002038
:105570004FF0E02000210161816105494FF47A720A
:105580000968B1FBF2F1491E4161072101617047D1
:105590001C00002010B5FAF7FBFE114910280ED3AD
:1055A00000F1E02090F8F0030A78904207D25020F2
:1055B00080F31188BFF34F8FBFF36F8FFEE7094869
:1055C0000068896800F4E060884207D9502080F3C1
:1055D0001188BFF34F8FBFF36F8FFEE710BD000040
:1055E000940000200CED00E010B5084B002200BF35
:1055F00053F832401CB1521C082AF9D310BD43F8AD
:10560000321003EBC201486010BD000050020020C0
:1056100010B504000AD000F013F894F846000028F2
:105620000CD12046BDE81040FFF770BF502080F33A
:105630001188BFF34F8FBFF36F8FFEE710BD0000DF
:10564000084A002102EBC1035B68834206D10020B7
:1056500042F8310002EBC10148607047491C08293B
:10566000F0D370475002002070B515460E46044630
:10567000FFF718FF94F944100020491C01D184F869
:10568000440094F94510491C01D184F84500FFF706
:1056900029FFA06B28B92A46314604F1240000F006
:1056A00099F82046BDE87040FFF7DABD10B502005A
:1056B00014D00F48006B38B1502080F31188BFF32D
:1056C0004F8FBFF36F8FFEE700F02CF900211046DB
:1056D000FFF730FA00F08CFF002807D105494FF0A2
:1056E00080500860BFF34F8FBFF36F8F10BD000075
:1056F0002000002004ED00E070B50546FFF7D2FE63
:105700001E4C05B92568281DFFF770FEA86A18B160
:1057100005F11800FFF76AFE606A401C60622068AD
:10572000854207D1291D1648FFF7B0FE6068401C6E
:10573000606007E0A068401EA0602846FFF705FBF8
:10574000FFF70EFDFFF7CEFE6069002814D0206839
:10575000854211D1206B38B1502080F31188BFF3FE
:105760004F8FBFF36F8FFEE706494FF08050086000
:10577000BFF34F8FBFF36F8F70BD0000200000207C
:105780002C07002004ED00E002490A6A0260C968A3
:10579000416070472000002001490120C861704726
:1057A0002000002010B50C4650B109490968183195
:1057B000FFF754FE2046BDE810400121FFF7BAB9BB
:1057C000502080F31188BFF34F8FBFF36F8FFEE738
:1057D0002000002070B514460D4668B10A490968DA
:1057E0001831FFF753FE0CB14FF0FF352146284624
:1057F000BDE87040FFF79EB9502080F31188BFF3D9
:105800004F8FBFF36F8FFEE72000002070B50400BC
:105810003ED0226DA2B1E06C884200D30146E06A1E
:10582000884235D0012A33D11A4D2A6894420FD1CB
:10583000502080F31188BFF34F8FBFF36F8FFEE7C7
:10584000502080F31188BFF34F8FBFF36F8FFEE7B7
:10585000E162A269002A02DBC1F13801A1610E4EAA
:1058600000EB8000616906EB8000814210D1201DB1
:10587000FFF7BCFDE06A2969884200D9286100EB86
:10588000800006EB8000211DBDE87040FFF7FEBDE3
:1058900070BD0000200000209002002030B587B0CD
:1058A0000024039405AA04A903A80494FFF7B2FDF9
:1058B000DDE903010094CDE90110002315A117488B
:1058C000059A00F03DFD164D0028E8621FD000F05B
:1058D000F1FE012809D0401C19D1502080F3118815
:1058E000BFF34F8FBFF36F8FFEE7502080F3118817
:1058F000BFF34F8FBFF36F8F4FF0FF30A8620120CF
:105900006861EC6007B0BDE8304000F045B807B012
:1059100030BD000049444C4500000000C94D00085E
:10592000200000200248016B491C01637047000001
:1059300020000020164810B5016B11B10121C16192
:1059400010BD0021C1610169124A01E0B9B1491ECF
:1059500001EB810352F82330002BF7D001EB8103D8
:1059600002EB830202F1080453685B685360A342B0
:1059700001D15B685360DA680260016110BD50209C
:1059800080F31188BFF34F8FBFF36F8FFEE70000E6
:1059900020000020900200201CB537480168374ADB
:1059A000914207D1502080F31188BFF34F8FBFF38E
:1059B0006F8FFEE700683149491E884207D15020A9
:1059C00080F31188BFF34F8FBFF36F8FFEE72C4931
:1059D00008780190FF20087008788DF800009DF885
:1059E00000009DF8002000F0F000904207D0502009
:1059F00080F31188BFF34F8FBFF36F8FFEE79DF8E1
:105A00000000204C00F0500020700720A06005E04E
:105A10009DF8002052008DF80020401E9DF80020C7
:105A20001206F5D4A060032807D0502080F3118817
:105A3000BFF34F8FBFF36F8FFEE74FF44070A0604E
:105A4000019808700C482030016841F47001016031
:105A5000016841F070410160FFF78AFD002060603D
:105A6000FAF75EFC0848016841F040410160FAF72E
:105A700043FC00201CBD000000ED00E071C20F419E
:105A800000E400E09400002034EF00E010B5502066
:105A900080F31188BFF34F8FBFF36F8F00F090FC3E
:105AA00018B104494FF080500860002080F311883D
:105AB00010BD000004ED00E010B50C4648B1844272
:105AC0000FD9502080F31188BFF34F8FBFF36F8F32
:105AD000FEE7502080F31188BFF34F8FBFF36F8F25
