:020000040800F2
:1000000000000120A1150008F5130008F7130008EF
:10001000F9130008FB130008FD130008000000009E
:10002000000000000000000000000000E13F0008A8
:10003000FF13000800000000814000087D3B00081D
:10004000F1150008F1150008F1150008F115000878
:10005000F1150008F1150008F1150008F115000868
:10006000F1150008F1150008F1150008F115000858
:10007000F1150008F1150008F1150008F115000848
:10008000F1150008F1150008F1150008F115000838
:10009000F1150008F1150008F1150008F115000828
:1000A000F115000801140008F1150008F115000809
:1000B000F11500080000000000000000F115000824
:1000C000F1150008F1150008F1150008F1150008F8
:1000D000F1150008F1150008F1150008F1150008E8
:1000E000F1150008F11500080000000000000000F4
:1000F0000000000000000000000000000000000000
:1001000000000000F115000800000000F1150008D3
:100110000000000000000000F1150008F1150008C3
:10012000F1150008F1150008F1150008F115000897
:10013000F1150008000000000000000000000000B1
:10014000F1150008F1150008F11500080000000085
:10015000F1150008F1150008F1150008F115000867
:10016000F1150008F1150008F11500080000000065
:10017000F1150008F1150008000000000000000063
:0C018000F1150008F1150008F115000849
:1001C00010B5054C237833B9044B13B10448AFF391
:1001D00000800123237010BDC00900200000000032
:1001E000ECC7000808B5034B1BB103490348AFF344
:1001F000008008BD00000000C4090020ECC7000812
:1002000053B94AB9002908BF00281CBF4FF0FF317D
:100210004FF0FF3000F074B9ADF1080C6DE904CE79
:1002200000F006F8DDF804E0DDE9022304B07047D1
:100230002DE9F047089D04468E46002B4DD18A4299
:10024000944669D9B2FA82F252B101FA02F3C2F1CC
:10025000200120FA01F10CFA02FC41EA030E94405D
:100260004FEA1C48210CBEFBF8F61FFA8CF708FB7E
:1002700016E341EA034306FB07F199420AD91CEB56
:10028000030306F1FF3080F01F81994240F21C8188
:10029000023E63445B1AA4B2B3FBF8F008FB1033D0
:1002A00044EA034400FB07F7A7420AD91CEB040405
:1002B00000F1FF3380F00A81A74240F207816444D5
:1002C000023840EA0640E41B00261DB1D44000235A
:1002D000C5E900433146BDE8F0878B4209D9002DBE
:1002E00000F0EF800026C5E9000130463146BDE848
:1002F000F087B3FA83F6002E4AD18B4202D38242B2
:1003000000F2F980841A61EB030301209E46002D60
:10031000E0D0C5E9004EDDE702B9FFDEB2FA82F2B5
:10032000002A40F09280A1EB0C014FEA1C471FFA13
:100330008CFE0126200CB1FBF7F307FB131140EAFA
:1003400001410EFB03F0884208D91CEB010103F1C7
:10035000FF3802D2884200F2CB804346091AA4B289
:10036000B1FBF7F007FB101144EA01440EFB00FE5D
:10037000A64508D91CEB040400F1FF3102D2A645C2
:1003800000F2BB800846A4EB0E0440EA03409CE761
:10039000C6F12007B34022FA07FC4CEA030C20FA0E
:1003A00007F401FA06F31C43F9404FEA1C4900FA2E
:1003B00006F3B1FBF9F8200C1FFA8CFE09FB1811AB
:1003C00040EA014108FB0EF0884202FA06F20BD91E
:1003D0001CEB010108F1FF3A80F08880884240F26E
:1003E0008580A8F102086144091AA4B2B1FBF9F0B2
:1003F00009FB101144EA014100FB0EFE8E4508D9AD
:100400001CEB010100F1FF346CD28E456AD9023831
:10041000614440EA0840A0FB0294A1EB0E01A14216
:10042000C846A64656D353D05DB1B3EB080261EB84
:100430000E0101FA07F722FA06F3F1401F43C5E95E
:10044000007100263146BDE8F087C2F12003D84094
:100450000CFA02FC21FA03F3914001434FEA1C47D6
:100460001FFA8CFEB3FBF7F007FB10360B0C43EAC8
:10047000064300FB0EF69E4204FA02F408D91CEB78
:10048000030300F1FF382FD29E422DD90238634476
:100490009B1B89B2B3FBF7F607FB163341EA034116
:1004A00006FB0EF38B4208D91CEB010106F1FF3865
:1004B00016D28B4214D9023E6144C91A46EA00465C
:1004C00038E72E46284605E70646E3E61846F8E6EE
:1004D0004B45A9D2B9EB020864EB0C0E0138A3E737
:1004E0004646EAE7204694E74046D1E7D0467BE718
:1004F000023B614432E7304609E76444023842E790
:10050000704700BF00000000000000000000000075
:1005100001F0FF01102A2BDB10F0070F08D010F8B4
:10052000013B013A8B422DD010F0070F42B3F6D1B8
:10053000F0B441EA012141EA014122F007047FF0D1
:1005400000070023F0E80256083C85EA010586EA28
:10055000010685FA47F5A3FA87F586FA47F6A5FA64
:1005600087F68EB9EED1F0BC01F0FF0102F0070270
:1005700032B110F8013B013A83EA010313B1F8D11B
:100580000020704701387047002D06BF35460338FC
:10059000073815F0010F07D1013015F4807F02BF35
:1005A000013015F4C03F0130F0BC0138704700BF86
:1005B000844641EA000313F003036DD1403A41D36E
:1005C00051F8043B40F8043B51F8043B40F8043B2D
:1005D00051F8043B40F8043B51F8043B40F8043B1D
:1005E00051F8043B40F8043B51F8043B40F8043B0D
:1005F00051F8043B40F8043B51F8043B40F8043BFD
:1006000051F8043B40F8043B51F8043B40F8043BEC
:1006100051F8043B40F8043B51F8043B40F8043BDC
:1006200051F8043B40F8043B51F8043B40F8043BCC
:1006300051F8043B40F8043B51F8043B40F8043BBC
:10064000403ABDD2303211D351F8043B40F8043B5C
:1006500051F8043B40F8043B51F8043B40F8043B9C
:1006600051F8043B40F8043B103AEDD20C3205D36C
:1006700051F8043B40F8043B043AF9D2043208D064
:10068000D2071CBF11F8013B00F8013B01D30B88D6
:1006900003806046704700BF082A13D38B078DD0B4
:1006A00010F003038AD0C3F10403D21ADB071CBF86
:1006B00011F8013B00F8013B80D331F8023B20F8F0
:1006C000023B7BE7043AD9D3013A11F8013B00F829
:1006D000013BF9D20B7803704B7843708B788370B1
:1006E00060467047000000000000000000000000AD
:1006F00000000000000000000000000000000000FA
:1007000090F800F06DE9024520F007016FF0000C51
:1007100010F0070491F820F040F049804FF00004F9
:100720006FF00700D1E9002391F840F000F10800D4
:1007300082FA4CF2A4FA8CF283FA4CF3A2FA8CF30C
:100740004BBBD1E9022382FA4CF200F10800A4FA73
:100750008CF283FA4CF3A2FA8CF3E3B9D1E90423C7
:1007600082FA4CF200F10800A4FA8CF283FA4CF3FE
:10077000A2FA8CF37BB9D1E9062301F1200182FAB8
:100780004CF200F10800A4FA8CF283FA4CF3A2FABE
:100790008CF3002BC6D0002A04BF04301A4612BACC
:1007A000B2FA82F2FDE8024500EBD2007047D1E9CF
:1007B000002304F00305C4F100004FEAC50514F05E
:1007C000040F91F840F00CFA05F562EA05021CBF2F
:1007D00063EA050362464FF00004A9E781F0004197
:1007E00002E000BF83F0004330B54FEA41044FEA16
:1007F000430594EA050F08BF90EA020F1FBF54EAB1
:10080000000C55EA020C7FEA645C7FEA655C00F04C
:10081000E2804FEA5454D4EB5555B8BF6D420CDD1D
:100820002C4480EA020281EA030382EA000083EAA0
:10083000010180EA020281EA0303362D88BF30BD40
:1008400011F0004F4FEA01314FF4801C4CEA113196
:1008500002D0404261EB410113F0004F4FEA0333F5
:100860004CEA133302D0524263EB430394EA050F80
:1008700000F0A780A4F10104D5F1200E0DDB02FAEF
:100880000EFC22FA05F2801841F1000103FA0EF283
:10089000801843FA05F359410EE0A5F120050EF149
:1008A000200E012A03FA0EFC28BF4CF0020C43FA7A
:1008B00005F3C01851EBE37101F0004507D54FF087
:1008C000000EDCF1000C7EEB00006EEB0101B1F5D7
:1008D000801F1BD3B1F5001F0CD349085FEA30001D
:1008E0004FEA3C0C04F101044FEA445212F5800F28
:1008F00080F09A80BCF1004F08BF5FEA500C50F1C5
:10090000000041EB045141EA050130BD5FEA4C0CA7
:10091000404141EB0101013C28BFB1F5801FE9D204
:1009200091F0000F04BF01460020B1FA81F308BF27
:100930002033A3F10B03B3F120020CDA0C3208DDF3
:1009400002F1140CC2F10C0201FA0CF021FA02F1CE
:100950000CE002F11402D8BFC2F1200C01FA02F13E
:1009600020FA0CFCDCBF41EA0C019040E41AA2BF63
:1009700001EB0451294330BD6FEA04041F3C1CDA2B
:100980000C340EDC04F11404C4F1200220FA04F04B
:1009900001FA02F340EA030021FA04F345EA0301F5
:1009A00030BDC4F10C04C4F1200220FA02F001FAB7
:1009B00004F340EA0300294630BD21FA04F0294639
:1009C00030BD94F0000F83F4801306BF81F48011D2
:1009D0000134013D4EE77FEA645C18BF7FEA655C45
:1009E00029D094EA050F08BF90EA020F05D054EA17
:1009F000000C04BF1946104630BD91EA030F1EBF1C
:100A00000021002030BD5FEA545C05D1400049411F
:100A100028BF41F0004130BD14F580043CBF01F512
:100A2000801130BD01F0004545F0FE4141F47001F8
:100A30004FF0000030BD7FEA645C1ABF19461046D3
:100A40007FEA655C1CBF0B46024650EA013406BFD4
:100A500052EA033591EA030F41F4002130BD00BF93
:100A600090F0000F04BF0021704730B54FF4806450
:100A700004F132044FF000054FF0000150E700BFD1
:100A800090F0000F04BF0021704730B54FF4806430
:100A900004F1320410F0004548BF40424FF000011D
:100AA0003EE700BF42004FEAE2014FEA31014FEA60
:100AB00002701FBF12F07F4393F07F4F81F06051AF
:100AC000704732F07F4208BF704793F07F4F04BFFA
:100AD00041F40021704730B54FF4607401F00045D7
:100AE00021F000411CE700BF50EA010208BF704737
:100AF00030B54FF000050AE050EA010208BF704728
:100B000030B511F0004502D5404261EB41014FF490
:100B1000806404F132045FEA915C3FF4D8AE4FF098
:100B200003025FEADC0C18BF03325FEADC0C18BF7B
:100B3000033202EBDC02C2F1200300FA03FC20FACC
:100B400002F001FA03FE40EA0E0021FA02F1144419
:100B5000BDE600BF70B54FF0FF0C4CF4E06C1CEA32
:100B600011541DBF1CEA135594EA0C0F95EA0C0FA3
:100B700000F0DEF82C4481EA030621EA4C5123EA16
:100B80004C5350EA013518BF52EA033541F4801145
:100B900043F4801338D0A0FB02CE4FF00005E1FBF8
:100BA00002E506F00042E0FB03E54FF00006E1FB42
:100BB00003569CF0000F18BF4EF0010EA4F1FF0485
:100BC000B6F5007F64F5407404D25FEA4E0E6D41C5
:100BD00046EB060642EAC62141EA55514FEAC520D6
:100BE00040EA5E504FEACE2EB4F1FD0C88BFBCF552
:100BF000E06F1ED8BEF1004F08BF5FEA500E50F103
:100C0000000041EB045170BD06F0004646EA0101C8
:100C100040EA020081EA0301B4EB5C04C2BFD4EBFA
:100C20000C0541EA045170BD41F480114FF0000EF3
:100C3000013C00F3AB8014F1360FDEBF002001F061
:100C4000004170BDC4F10004203C35DA0C341BDCDB
:100C500004F11404C4F1200500FA05F320FA04F0AD
:100C600001FA05F240EA020001F0004221F00041E1
:100C700010EBD37021FA04F642EB06015EEA430E54
:100C800008BF20EAD37070BDC4F10C04C4F1200584
:100C900000FA04F320FA05F001FA04F240EA020037
:100CA00001F0004110EBD37041F100015EEA430E08
:100CB00008BF20EAD37070BDC4F1200500FA05F228
:100CC0004EEA020E20FA04F301FA05F243EA0203A7
:100CD00021FA04F001F0004121FA04F220EA0200B6
:100CE00000EBD3705EEA430E08BF20EAD37070BDFC
:100CF00094F0000F0FD101F00046400041EB0101DC
:100D000011F4801F08BF013CF7D041EA060195F0BD
:100D1000000F18BF704703F00046520043EB030377
:100D200013F4801F08BF013DF7D043EA0603704764
:100D300094EA0C0F0CEA135518BF95EA0C0F0CD06F
:100D400050EA410618BF52EA4306D1D181EA0301B5
:100D500001F000414FF0000070BD50EA410606BFAF
:100D60001046194652EA430619D094EA0C0F02D1F4
:100D700050EA013613D195EA0C0F05D152EA033639
:100D80001CBF104619460AD181EA030101F0004157
:100D900041F0FE4141F470014FF0000070BD41F0A0
:100DA000FE4141F4780170BD70B54FF0FF0C4CF47A
:100DB000E06C1CEA11541DBF1CEA135594EA0C0F99
:100DC00095EA0C0F00F0A7F8A4EB050481EA030EE6
:100DD00052EA03354FEA013100F088804FEA0333CD
:100DE0004FF0805545EA131343EA12634FEA02229B
:100DF00045EA111545EA10654FEA00260EF000415C
:100E00009D4208BF964244F1FD0404F5407402D2AD
:100E10005B084FEA3202B61A65EB03055B084FEA3E
:100E200032024FF480104FF4002CB6EB020E75EB3B
:100E3000030E22BFB61A754640EA0C005B084FEA63
:100E40003202B6EB020E75EB030E22BFB61A7546E0
:100E500040EA5C005B084FEA3202B6EB020E75EB2B
:100E6000030E22BFB61A754640EA9C005B084FEAA3
:100E70003202B6EB020E75EB030E22BFB61A7546B0
:100E800040EADC0055EA060E18D04FEA051545EA9F
:100E900016754FEA06164FEAC30343EA52734FEA48
:100EA000C2025FEA1C1CC0D111F4801F0BD141EAC1
:100EB00000014FF000004FF0004CB6E711F4801F26
:100EC00004BF01430020B4F1FD0C88BFBCF5E06F06
:100ED0003FF6AFAEB5EB030C04BFB6EB020C5FEA16
:100EE000500C50F1000041EB045170BD0EF0004E6B
:100EF0004EEA113114EB5C04C2BFD4EB0C0541EA9D
:100F0000045170BD41F480114FF0000E013C90E699
:100F100045EA060E8DE60CEA135594EA0C0F08BF5D
:100F200095EA0C0F3FF43BAF94EA0C0F0AD150EA5C
:100F300001347FF434AF95EA0C0F7FF425AF1046EF
:100F400019462CE795EA0C0F06D152EA03353FF417
:100F5000FDAE1046194622E750EA410618BF52EA94
:100F600043067FF4C5AE50EA41047FF40DAF52EA68
:100F700043057FF4EBAE12E74FF0FF3C06E000BF05
:100F80004FF0010C02E000BF4FF0010C4DF804CD12
:100F90004FEA410C7FEA6C5C4FEA430C18BF7FEAD2
:100FA0006C5C1BD001B050EA410C0CBF52EA430C00
:100FB00091EA030F02BF90EA020F0020704710F180
:100FC000000F91EA030F58BF994208BF90422CBF0F
:100FD000D8176FEAE37040F0010070474FEA410C08
:100FE0007FEA6C5C02D150EA013C07D14FEA430C26
:100FF0007FEA6C5CD6D152EA033CD3D05DF8040B97
:10100000704700BF8446104662468C4619466346C8
:1010100000E000BF01B5FFF7B7FF002848BF10F19F
:10102000000F01BD4DF808EDFFF7F4FF0CBF0120E4
:1010300000205DF808FB00BF4DF808EDFFF7EAFF60
:1010400034BF012000205DF808FB00BF4DF808ED1B
:10105000FFF7E0FF94BF012000205DF808FB00BF10
:101060004DF808EDFFF7CEFF94BF012000205DF89A
:1010700008FB00BF4DF808EDFFF7C4FF34BF0120A7
:1010800000205DF808FB00BF4FEA410C7FEA6C5C72
:1010900002D150EA013C0AD14FEA430C7FEA6C5C72
:1010A00002D152EA033C02D14FF0000070474FF0EA
:1010B000010070474FEA410212F5001215D211D516
:1010C0006FF47873B3EB625212D94FEAC12343F045
:1010D000004343EA505311F0004F23FA02F018BFC7
:1010E000404270474FF00000704750EA013005D190
:1010F00011F0004008BF6FF0004070474FF0000053
:10110000704700BF00B583B0064B0193882300935E
:10111000054B064A0649032002F064F804F0C0FFBC
:10112000FCE700BF68C800089CC8000828C8000881
:1011300060C8000810B588B0154C0DF1100C94E88B
:101140000F008CE80F0062460121084602F0D4FD32
:10115000104B1860EC46103494E80F008CE80F0038
:1011600062460121084602F0C7FD0B4B18600B4A8E
:1011700000210B4802F03CFD0A4B18600A4A00218E
:101180000A4802F035FD0A4B186008B010BD00BFD8
:1011900008C80008E4090020E0090020CCC80008C5
:1011A00005110008E8090020A8C80008F53000086B
:1011B000DC09002030B589B0002403940494059420
:1011C00006940794174BDA6C42F00402DA64DA6C86
:1011D00002F004020092009ADA6C42F08002DA64B3
:1011E000DA6C02F080020192019ADA6C42F001029C
:1011F000DA64DB6C03F001030293029B0A4D224682
:101200004FF40051284600F051FB4FF40053039374
:10121000012304930594069403A9284600F062FA7A
:1012200009B030BD001002400008004808B502F0C7
:10123000E3FAFF21002002F0CBF90721012002F0A0
:10124000C7F90721022002F0C3F90721032002F0A9
:10125000BFF9A721042002F0BBF9A721052002F065
:10126000B7F902F08DF908BD08B50268034B9A4240
:1012700000D008BD00F0CCF9FBE700BF00440140FE
:1012800072B6FEE700B597B04422002105A804F02D
:101290004FFF0023009301930293039304934FF4B1
:1012A000007000F011FB18BB012205924FF480334F
:1012B000069302230F93032110911192122212928E
:1012C000072213921493159305A800F0E7FB88B941
:1012D0000F230093032301930023029303930493AA
:1012E0000421684600F010FF30B917B05DF804FB28
:1012F000FFF7C6FFFFF7C4FFFFF7C2FF08B500F016
:1013000078F9FFF7BFFFFFF755FF00F0E9F8FFF7A7
:101310008DFF02F03FFCFFF70DFF02F04DFCFEE7F2
:1013200000B583B00D4B1A6E42F001021A661A6EB8
:1013300002F001020092009A9A6D42F080529A6582
:101340009B6D03F080530193019B00220F216FF0EE
:10135000010000F081F903B05DF804FB00100240C9
:1013600030B589B004461E4B1A6E42F400321A663C
:101370001B6E03F400330193019B02A903A800F044
:10138000B1FF00F09DFF03461648A0FB03239B0C12
:10139000013B1548154A026040F2E732C2604360E3
:1013A000002303618360836101F040FB054610B1B7
:1013B000284609B030BD0C4801F0F8F90546002870
:1013C000F6D1192000F080F90F2C01D90125EFE7A3
:1013D00000222146192000F03FF9054B1C60E7E789
:1013E0000010024083DE1B438C0A002000440140B1
:1013F00008000020FEE7FEE7FEE7FEE7FEE7704795
:1014000008B5024801F00CFA08BD00BF8C0A0020A4
:101410000120704708B504F061FE162303604FF009
:10142000FF3008BD08B54FF0FF31FFF7F3FFFEE7CF
:1014300070B50C461646002506E0AFF30080214645
:1014400001F8010B01350C46B542F6DB304670BDA4
:1014500070B50C461646002504E014F8010BAFF3F6
:1014600000800135B542F8DB304670BD4FF0FF30EB
:1014700070474FF400534B600020704701207047C5
:101480000020704710B503460C4A0D490D4800680E
:1014900040B10C4800680344521A934206D8094AE6
:1014A000136010BD0748084C0460F2E704F016FE14
:1014B0000C2303604FF0FF30F3E700BF0000012072
:1014C00000040000D80A0020682F0020034AD2F848
:1014D000883043F47003C2F88830704700ED00E0B4
:1014E00008B50B480B4B03604FF4E1334360002316
:1014F0008360C36003610C2242618361C361036244
:10150000436201F08AFD00B908BDFFF7B9FEFBE7B1
:10151000DC0A00200044004010B59EB004460021C3
:1015200019911A911B911C911D915C2202A804F043
:10153000FFFD2268184B9A4201D01EB010BD022355
:10154000029302A800F0A2FF10BB144B9A6D42F464
:1015500000329A659A6D02F400320092009ADA6CB9
:1015600042F00102DA64DB6C03F001030193019B9A
:101570000C23199302231A9300231B9303231C9318
:1015800007231D9319A94FF0904000F0ABF8D4E762
:10159000FFF776FED9E700BF00440040001002408C
:1015A000DFF834D0FFF792FF0C480D490D4A0023B5
:1015B00002E0D458C4500433C4188C42F9D30A4A08
:1015C0000A4C002301E013600432A242FBD304F072
:1015D0008BFDFFF793FEFEE70000012000000020D6
:1015E000C009002000D00008C0090020642F00209E
:1015F000FEE710B5032000F01DF80020FFF7B0FE55
:1016000010B10124204610BD0446FFF789FEF9E71A
:10161000034B1B78034A11680B441360704700BFEB
:1016200004000020600B0020014B1868704700BFC9
:10163000600B0020074AD36823F4E0631B041B0CF3
:10164000000200F4E060034343F0BF6343F400335F
:10165000D360704700ED00E000B5194BDB68C3F3C1
:101660000223C3F1070CBCF1040F28BF4FF0040C98
:1016700003F1040EBEF1060F18D9033B4FF0FF3EF5
:101680000EFA0CFC21EA0C0199400EFA03F322EA4F
:101690000303194300280BDB0901C9B200F16040C4
:1016A00000F5614080F800135DF804FB0023E5E7D6
:1016B00000F00F000901C9B2024B1954F4E700BF52
:1016C00000ED00E014ED00E0002807DB00F01F0251
:1016D000400901239340024A42F82030704700BF7E
:1016E00000E100E0F0B583B0002362E085685E00B1
:1016F0000324B44025EA0405CC68B4402C4384603C
:10170000446824EA0C0C4C68C4F300149C4044EA7E
:101710000C0444605EE0DD08083550F8256003F0F5
:1017200007044FEA840C0F2404FA0CF426EA040E92
:101730000C6904FA0CF444EA0E0440F8254060E019
:10174000042400E0002404FA0EF42C430CF1020CF3
:10175000524D45F82C40524CA568D44325EA020668
:101760004F6817F4801F01D042EA05064C4DAE6069
:10177000ED6804EA05064F6817F4001F01D042EA3D
:101780000506474DEE606D6804EA05064F6817F4DC
:10179000003F01D042EA0506414D6E602D682C40A5
:1017A0004E6816F4803F01D042EA05043C4A1460BA
:1017B00001330A6832FA03F46ED04FF0010C0CFAD0
:1017C00003FC1CEA0202F3D04C6804F00304013C61
:1017D000012C8BD94C6804F00304032C0CD0C46892
:1017E0005D004FF0030C0CFA05FC24EA0C0C8C682D
:1017F000AC4044EA0C04C4604C6804F00304022CBE
:1018000089D004684FEA430E4FF0030C0CFA0EFC2B
:1018100024EA0C0C4C6804F0030404FA0EF444EAC5
:101820000C0404604C6814F4403FC1D01D4C256E7C
:1018300045F001052566246E04F001040194019C25
:101840004FEA930C0CF10205144C54F8255003F0A8
:1018500003044FEA840E0F2404FA0EF425EA04056B
:10186000B0F1904F3FF46EAF0F4CA0420ED004F594
:101870008064A0420CD004F58064A0420AD004F534
:101880008064A0423FF45CAF07245CE701245AE780
:10189000022458E7032456E703B0F0BD00000140DE
:1018A0000004014000100240000400480AB18161B8
:1018B0007047816270470000024B186800F4C060F6
:1018C000704700BF00700040B0F5007F0FD01F4B85
:1018D0001B6803F4C063B3F5806F34D01B4A1368F0
:1018E00023F4C06343F48063136000207047174BF8
:1018F0001B6803F4C063B3F5007F20D0134A13685C
:1019000023F4C06343F400731360114B1B6832224D
:1019100002FB03F30F4AA2FB03239B0C013300E0FD
:10192000013B0A4A526912F4806F01D0002BF7D1B3
:10193000064B5B6913F4806F03D1002070470020D1
:101940007047032070470020704700BF00700040C0
:101950000000002083DE1B4330B583B00446204BDB
:101960009B6D13F0805F0BD0FFF7A6FFB0F5007FF3
:1019700017D0802C1FD82DD0702C2DD000211BE02B
:10198000174DAB6D43F08053AB65AB6D03F08053E7
:101990000193019BFFF790FFAB6D23F08053AB6584
:1019A000E4E7802C03D9A02C03D9022104E0002114
:1019B00002E0012100E003210A4A136823F0070333
:1019C0000B431360136803F007038B4206D100201A
:1019D00003B030BD0221EFE70121EDE70120F7E779
:1019E0000010024000200240284A9368D26802F0AA
:1019F000030213F00C030AD00C2B06D0042B1FD0CB
:101A0000082B20D00020024610E0012AF6D11F4A00
:101A1000126812F0080F0CD11C4AD2F89420C2F3BD
:101A200003221B4951F8222043B100200C2B0DD07A
:101A30007047164A1268C2F30312F2E71046F5E740
:101A400014480022F2E714480022EFE70F4BDB684E
:101A500003F00303022B16D0032B00D10E4A0B49CF
:101A6000C868C0F30210431CC868C0F3062002FB1C
:101A700000F0B0FBF3F0CB68C3F3416301335B00CC
:101A8000B0FBF3F0D4E7034AE9E700BF00100240DF
:101A900008C900080024F40000127A00002800F0B1
:101AA0001C83F0B583B00446964B9D6805F00C0589
:101AB000DE6806F00306036813F0100F5AD0E5B194
:101AC0000C2D18D0A369002B00F0BB808D4A136841
:101AD00043F001031360FFF7A7FD0746894B1B681E
:101AE00013F0020F40F09A80FFF79EFDC01B022802
:101AF000F4D90320FCE2012EE4D1824B1B6813F0E1
:101B0000020F03D0A369002B00F0E982206A7D4B0D
:101B10001B6813F0080F5BD07A4B1B6803F0F003CF
:101B200098425CD8774B1A6842F008021A601A682B
:101B300022F0F002216A0A431A605A6822F47F42B6
:101B4000E16942EA01225A60002D60D0FFF74CFFA4
:101B50006C4B9B68C3F303136B4AD35C03F01F0306
:101B6000D8406A4B18606A4B1868FFF7F9FB0028E9
:101B700040F0BE82236813F0010F00F08180082D31
:101B800075D00C2D71D06368B3F5803F00F097805D
:101B9000B3F5A02F00F099805A4B1A6822F48032D6
:101BA0001A601A6822F480221A606368002B00F021
:101BB0009980FFF739FD0746524B1B6813F4003F2D
:101BC0005ED1FFF731FDC01B6428F5D903208FE2F9
:101BD0004C4BD3F894301B0903F0F003A0E7FFF758
:101BE000BBFE002840F07D82464B1A6842F0080296
:101BF0001A601A6822F0F002216A0A431A605A68D1
:101C000022F47F42E16942EA01225A609EE7206A9B
:101C1000FFF7A2FE002899D0012069E2394B1A682B
:101C200042F008021A601A6822F0F002216A0A43A0
:101C30001A605A6822F47F42E16942EA01225A603E
:101C400098E7304A136823F001031360FFF7ECFCB8
:101C500007462C4B1B6813F0020F8BD0FFF7E4FCF8
:101C6000C01B0228F5D9032042E2032E8BD1254B5D
:101C70001B6813F4003F03D06368002B00F033822D
:101C8000236813F0020F58D0042D45D00C2D41D0FD
:101C9000E368002B77D01B4A136843F4807313600A
:101CA000FFF7C2FC0646174B1B6813F4806F61D127
:101CB000FFF7BAFC801B0228F5D9032018E2114A6D
:101CC000136843F4803313606FE703F18043A3F597
:101CD0003C331A6842F480221A601A6842F4803257
:101CE0001A6062E7FFF7A0FC0746064B1B6813F477
:101CF000003FC5D0FFF798FCC01B6428F5D903202E
:101D0000F6E100BF00100240F0C80008000000200B
:101D100008000020022EBBD1A44B1B6813F4806F77
:101D200003D0E368002B00F0E081A04A536823F061
:101D3000F853216943EA01635360236813F0080FE5
:101D40004CD063699BB3994AD2F8943043F00103B5
:101D5000C2F89430FFF768FC0646944BD3F89430F1
:101D600013F0020F3AD1FFF75FFC801B0228F4D971
:101D70000320BDE18D4A536823F0F853216943EAFB
:101D800001635360D9E7894A136823F480731360B1
:101D9000FFF74AFC0646854B1B6813F4806FCCD0D6
:101DA000FFF742FC801B0228F5D90320A0E17F4AFF
:101DB000D2F8943023F00103C2F89430FFF734FCDA
:101DC00006467A4BD3F8943013F0020F06D0FFF793
:101DD0002BFC801B0228F4D9032089E1236813F02F
:101DE000040F7AD0714B9B6D13F0805F36D16F4B2F
:101DF0009A6D42F080529A659B6D03F08053019377
:101E0000019B01266A4B1B6813F4807F28D0A368CE
:101E1000012B39D0052B3FD0644BD3F8902022F012
:101E20000102C3F89020D3F8902022F00402C3F8F6
:101E30009020A368002B3DD0FFF7F6FB07465B4BD5
:101E4000D3F8903013F0020F46D1FFF7EDFBC01B23
:101E500041F288339842F2D9032049E10026D1E7C4
:101E6000534A136843F480731360FFF7DDFB0746A2
:101E70004F4B1B6813F4807FC9D1FFF7D5FBC01B04
:101E80000228F5D9032033E1484AD2F8903043F0D4
:101E90000103C2F89030CCE7444BD3F8902042F0D5
:101EA0000402C3F89020D3F8902042F00102C3F856
:101EB0009020BEE7FFF7B8FB07463C4BD3F89030C5
:101EC00013F0020F08D0FFF7AFFBC01B41F28833BD
:101ED0009842F2D903200BE1E6B9236813F0200FF2
:101EE00035D0636AE3B1314AD2F8983043F0010348
:101EF000C2F89830FFF798FB06462C4BD3F8983081
:101F000013F0020F23D1FFF78FFB801B0228F4D9B7
:101F10000320EDE0254A936D23F080539365DCE7C1
:101F2000224AD2F8983023F00103C2F89830FFF724
:101F30007BFB06461D4BD3F8983013F0020F06D0FA
:101F4000FFF772FB801B0228F4D90320D0E0A36ABC
:101F5000002B00F0CC80022B17D00C2D00F0CC8091
:101F6000124A136823F080731360FFF75DFB044689
:101F70000E4B1B6813F0007F00F0A880FFF754FBA6
:101F8000001B0228F4D90320B2E0084BDB6803F001
:101F90000301E26A91420DD00C2D00F0AB80034B9F
:101FA0001B6813F0806F2FD00120A1E000100240C9
:101FB0000070004003F07002216B0139B2EB011F89
:101FC000EAD103F4FE42616BB2EB012FE4D103F0DE
:101FD0007842A16BB2EBC16FDED103F4C001E26BBA
:101FE0005208013AB1EB425FD6D103F0C063226CD4
:101FF0005208013AB3EB426FCED1404B1B6813F04D
:10200000007F49D0002073E03C4A136823F08073BE
:102010001360FFF709FB0546384B1B6813F0007F80
:1020200006D0FFF701FB401B0228F5D903205FE033
:10203000324AD36832491940E36A206B013843EAD7
:102040000013606B43EA0023E06B4008013843EA69
:102050004053206C4008013843EA4063A06B43EAD8
:10206000C0630B43D360136843F080731360D3687D
:1020700043F08073D360FFF7D7FA04461F4B1B6809
:1020800013F0007F06D1FFF7CFFA001B0228F5D925
:1020900003202DE000202BE0184B1A6842F08072DC
:1020A0001A60DA6842F08072DA60FFF7BDFA04461F
:1020B000124B1B6813F0007F06D1FFF7B5FA031B24
:1020C000022BF5D9032013E0002011E00B4AD16860
:1020D0000C4B0B40D36000200AE001207047012028
:1020E00006E0012004E0012002E0012000E00020E1
:1020F00003B0F0BD0120FBE70120F9E7001002402A
:102100008C809D01FCFFEEFE002800F0AF8070B5D2
:102110000D460446594B1B6803F007038B420BD254
:10212000564A136823F007030B431360136803F048
:1021300007038B4240F09C80236813F0020F0CD001
:10214000A2684F4B9B6803F0F0039A4205D94C49B3
:102150008B6823F0F0031A438A60236813F0010FA1
:1021600039D06368032B09D0022B26D063BB444AC5
:10217000126812F0020F06D1012076E0404A126880
:1021800012F0007F76D03E498A6822F003021343A2
:102190008B60FFF749FA0646394B9B6803F00C0346
:1021A0006268B3EB820F16D0FFF73EFA801B41F254
:1021B00088339842F0D9032057E0314A126812F46C
:1021C000003FE0D1012050E02D4A126812F4806FE8
:1021D000D9D1012049E0236813F0020F0CD0A26886
:1021E000274B9B6803F0F0039A4205D224498B6881
:1021F00023F0F0031A438A60204B1B6803F00703A7
:10220000AB420AD91D4A136823F007032B4313601E
:10221000136803F00703AB422ED1236813F0040FB9
:1022200006D0174A936823F4E063E1680B43936098
:10223000236813F0080F07D0114A936823F4605302
:10224000216943EAC1039360FFF7CEFB0C4B9B6807
:10225000C3F303130B4AD35C03F01F03D8400A4BAC
:1022600018600A4B1868FFF77BF870BD01207047B3
:102270000120FAE70120F8E70120F6E700200240FC
:1022800000100240F0C800080000002008000020F4
:10229000014B1868704700BF0000002008B5FFF729
:1022A000F7FF054B9B68C3F30223044AD35C03F09A
:1022B0001F03D84008BD00BF0010024000C900083D
:1022C00008B5FFF7E5FF054B9B68C3F3C223044A3B
:1022D000D35C03F01F03D84008BD00BF00100240CC
:1022E00000C900080F2303600B4B9A6802F0030239
:1022F00042609A6802F0F00282609A6802F4E0623A
:10230000C2609B68DB0803F4E0630361034B1B6856
:1023100003F007030B6070470010024000200240EA
:10232000F8B504460F46584BDB6813F0030F18D07E
:10233000554BDB6803F003030268934202D001258A
:102340002846F8BD002A00F09D804F4BDB68C3F3A0
:10235000021301334268934201D00125F0E70025C2
:1023600009E00368022B56D0032B5BD0012B41D030
:102370000125002DE4D1444A136823F080631360E3
:10238000FFF752F90646404B1B6813F0006F05D06B
:10239000FFF74AF9831B022BF5D90325002DCFD176
:1023A000002F4DD138490B6923F0784323F4FE43C5
:1023B000A068E268D20642EA002213430B61324A67
:1023C000136843F080631360FFF72EF906462E4B27
:1023D0001B6813F0006F05D1FFF726F9831B022B52
:1023E000F5D90325002DABD1274A1369A1690B4309
:1023F0001361A5E7244A126812F0020F1ED022488A
:10240000C26822F073026168013943EA0113134381
:10241000C3600025ADE71C4A126812F4806FEED14C
:102420000125A6E7184A126812F4003FE7D1164AC0
:10243000126812F4802FE2D101259AE7012598E76E
:10244000012F0FD01048026922F0C06222F4FE4230
:10245000A16863695B08013B5B0643EA0123134300
:102460000361ACE70848026922F4C00222F4FE428C
:10247000A16823695B08013B5B0543EA0123134321
:1024800003619CE701255BE7001002402DE9F04164
:1024900082B00446036813F4006F25D0436CB3F593
:1024A000000F06D0B3F5400F12D04BB101263746CE
:1024B0001CE0B34AD36843F48033D360002708E0BC
:1024C00000210430FFF72CFF074610B106460DE04F
:1024D0000027AB4AD2F8883023F44003616C0B43E9
:1024E000C2F88830002601E000263746236813F43E
:1024F000003F6BD0A24B9B6D13F0805F4CD1A04B83
:102500009A6D42F080529A659B6D03F0805301935F
:10251000019B4FF001089B4A136843F480731360DA
:10252000FFF782F80546974B1B6813F4807F05D1AF
:10253000FFF77AF8401B0228F5D90327002F40D176
:102540008F4BD3F8903013F4407315D0A26D9A429C
:1025500012D08B4AD2F8903023F44073D2F8901006
:1025600041F48031C2F89010D2F8901021F48031FB
:10257000C2F89010C2F8903013F0010F0FD1002F65
:1025800040F0E3807E4AD2F8903023F44073A16D8E
:102590000B43C2F8903015E04FF00008BBE7FFF79F
:1025A00043F80546764BD3F8903013F0020FE6D18E
:1025B000FFF73AF8401B41F288339842F2D90327DB
:1025C000DDE73E46B8F1000F40F0C180236813F00C
:1025D000010F08D06A4AD2F8883023F00303216A39
:1025E0000B43C2F88830236813F0020F08D0644A06
:1025F000D2F8883023F00C03616A0B43C2F88830AC
:10260000236813F0040F08D05D4AD2F8883023F015
:102610003003A16A0B43C2F88830236813F0200FFF
:1026200008D0574AD2F8883023F44063E16A0B435C
:10263000C2F88830236813F4007F08D0504AD2F8DB
:10264000883023F44023E16B0B43C2F888302368C1
:1026500013F4806F08D04A4AD2F8883023F440132C
:10266000216C0B43C2F88830236813F0400F08D068
:10267000434AD2F8883023F44053216B0B43C2F80D
:102680008830236813F0800F08D03D4AD2F8883094
:1026900023F44043616B0B43C2F88830236813F482
:1026A000807F08D0364AD2F8883023F44033A16BBB
:1026B0000B43C2F88830236813F4002F0FD0304A40
:1026C000D2F8883023F04063A16C0B43C2F8883005
:1026D000A36CB3F1006F40D0B3F1806F42D0236898
:1026E00013F4802F0FD0264AD2F8883023F04063AD
:1026F000E16C0B43C2F88830E36CB3F1006F39D062
:10270000B3F1806F40D0236813F4804F0CD01C4A83
:10271000D2F8883023F04053216D0B43C2F8883043
:10272000236DB3F1805F37D0236813F4004F08D0D6
:10273000134AD2F8883023F08043616D0B43C2F80E
:102740008830304602B0BDE8F0813E463AE70C4A98
:10275000936D23F08053936538E7D36843F4801377
:10276000D360BCE70121201DFFF7DAFD0028B6D0B9
:102770000646B4E7D36843F48013D360C3E700BFD1
:1027800000100240007000400121201DFFF7C8FD2D
:102790000028B8D00646B6E70221201DFFF7C0FD8D
:1027A0000028C1D00646BFE77047000090F83D30D2
:1027B000DBB2012B26D1022380F83D300268D368BA
:1027C00043F00103D3600368114A93420CD0B3F184
:1027D000804F09D002F5A052934205D01A6842F00A
:1027E00001021A600020704799680A4A0A40062AC6
:1027F0000AD0B2F5803F09D01A6842F001021A608F
:10280000002070470120704700207047002070476B
:10281000002C014007000100704770477047704767
:1028200010B5044603681A6912F0020F11D0DA6875
:1028300012F0020F0DD06FF002021A61012303772C
:1028400003689B6913F0030F79D0FFF7E6FF0023BD
:10285000237723681A6912F0040F12D0DA6812F095
:10286000040F0ED06FF004021A610223237723684D
:102870009B6913F4407F68D02046FFF7CEFF00230A
:10288000237723681A6912F0080F12D0DA6812F061
:10289000080F0ED06FF008021A6104232377236813
:1028A000DB6913F0030F57D02046FFF7B6FF002374
:1028B000237723681A6912F0100F12D0DA6812F029
:1028C000100F0ED06FF010021A61082323772368CF
:1028D000DB6913F4407F46D02046FFF79EFF0023BC
:1028E000237723681A6912F0010F03D0DA6812F017
:1028F000010F3FD123681A6912F0800F03D0DA6804
:1029000012F0800F3DD123681A6912F4807F03D042
:10291000DA6812F0800F3BD123681A6912F0400F79
:1029200003D0DA6812F0400F39D123681A6912F027
:10293000200F03D0DA6812F0200F37D110BDFFF757
:102940006BFF2046FFF76AFF81E72046FFF764FF31
:102950002046FFF763FF92E72046FFF75DFF204622
:10296000FFF75CFFA3E72046FFF756FF2046FFF77F
:1029700055FFB4E76FF001021A612046FEF774FCC0
:10298000B8E76FF080021A61204600F080F8BAE7DD
:102990006FF480721A61204600F07AF8BCE76FF09D
:1029A00040021A612046FFF73AFFBEE76FF02002AF
:1029B0001A61204600F06AF8C0E7000003681A4A6E
:1029C000904202D0B0F1804F03D123F070034A68E7
:1029D0001343154A90420AD0B0F1804F07D002F558
:1029E000A052904203D002F58062904203D123F4BA
:1029F0004073CA68134323F080034A69134303609A
:102A00008B68C3620B688362074B984207D003F55B
:102A1000A053984203D003F58063984201D10B691B
:102A20000363012343617047002C014060B310B57C
:102A3000044690F83D3013B3022384F83D3021461C
:102A400051F8040BFFF7BAFF012384F8483084F8EB
:102A50003E3084F83F3084F8403084F8413084F8C8
:102A6000423084F8433084F8443084F8453084F8A8
:102A7000463084F8473084F83D30002010BD80F89F
:102A80003C30FFF791FED7E7012070477047704751
:102A90007047000010B5044601688368026913435B
:102AA00042691343C26913430868954A02401343BD
:102AB0000B602268536823F44053E1680B43536072
:102AC000A16922688F4B9A4201D0236A1943936807
:102AD00023F430630B43936023688B4A93421FD0E7
:102AE0008A4A934230D08A4A934246D0854A9342DA
:102AF00055D0102283498B427AD0E069B0F5004F5F
:102B000000F0A680082A00F20F81DFE812F0CE0064
:102B1000E500CC000D01E8000D010D010D01EB00F9
:102B200002F55842D2F8882002F00302032A09D89D
:102B3000DFE802F002044A060122DBE70422D9E7BB
:102B40000822D7E71022D5E702F5E632D2F888202E
:102B500002F00C020C2A0ED8DFE802F0070D0D0D72
:102B6000090D0D0D380D0D0D0B000022C2E70422DA
:102B7000C0E70822BEE71022BCE702F5E432D2F833
:102B8000882002F03002202A22D004D812B3102A62
:102B900022D10422AEE7302A20D10822AAE702F58A
:102BA000C832D2F8882002F44062B2F5006F17D024
:102BB00005D8BAB1B2F5806F16D104229AE7B2F502
:102BC000406F13D1082295E7022293E7022291E792
:102BD00002228FE700228DE710228BE7102289E77F
:102BE000022287E7002285E7102283E7102281E78F
:102BF000082A7AD8DFE802F008792A7927797979E2
:102C000005004FF4004003E0FFF748FB00286ED0BA
:102C1000626802EB420383426BD8B0EB023F6AD892
:102C2000010E00025308C0184FF0000341F10001EB
:102C3000FDF7E6FAA0F54072364B9A425DD823685C
:102C4000D860002044E0FEF7CFFEDFE73248DFE740
:102C5000082A63D8DFE802F0072105622462626275
:102C60000B002D4803E0FFF719FB002858D06268DD
:102C7000530803EB4000B0FBF2F0A0F110024FF656
:102C8000EF739A424ED883B223F00F03C0F3420091
:102C900018432368D86000201AE0FFF711FBE4E72F
:102CA000FEF7A2FEE1E71C4803E0FFF7F7FA002871
:102CB0003CD0636800EB5300B0FBF3F0A0F11002CE
:102CC0004FF6EF739A4233D8236880B2D860002061
:102CD00000236366A36610BDFFF7F2FAE7E7FEF78D
:102CE00083FEE4E74FF40040E3E70120F0E7002033
:102CF000EEE70120ECE70120EAE70120E8E700BF6A
:102D0000F369FFEF008000400038014000440040BC
:102D100000480040FFFC0F000024F4000120D7E72A
:102D20000020D5E70120D3E70120D1E70020CFE73D
:102D30000120CDE7436A13F0010F06D00268536803
:102D400023F40033816A0B435360436A13F0020F8C
:102D500006D00268536823F48033C16A0B43536082
:102D6000436A13F0040F06D00268536823F48023EB
:102D7000016B0B435360436A13F0080F06D00268DF
:102D8000536823F40043416B0B435360436A13F0D1
:102D9000100F06D00268936823F48053816B0B43B5
:102DA0009360436A13F0200F06D00268936823F4FF
:102DB0000053C16B0B439360436A13F0400F0AD07A
:102DC0000268536823F48013016C0B435360036C57
:102DD000B3F5801F0BD0436A13F0800F06D0026852
:102DE000536823F40023816C0B43536070470268DF
:102DF000536823F4C003416C0B435360EBE72DE9A8
:102E0000F84305460F4616469946DDF820802C68A3
:102E1000E46937EA04030CBF4FF0010C4FF0000CDB
:102E2000B44553D1B8F1FF3FF1D0FEF7FDFBA0EB65
:102E3000090040452DD8B8F1000F2AD02B681A6838
:102E400012F0040FE3D0DA6912F4006FDFD04FF410
:102E500000621A622A6852E8003F23F4D07342E805
:102E600000310029F6D12A6802F1080353E8003F37
:102E700023F00103083242E800310029F3D1202376
:102E8000AB67EB67C5F88030002385F8743003200A
:102E90001DE02A6852E8003F23F4D07342E8003175
:102EA0000029F6D12A6802F1080353E8003F23F015
:102EB0000103083242E800310029F3D12023AB6737
:102EC000EB67002385F87430032000E00020BDE8A4
:102ED000F8832DE9F04182B01E46836F202B56D136
:102EE00004460D469046002955D0002A55D090F84A
:102EF0007430012B53D0012380F874300023C0F8C4
:102F0000803021238367FEF78FFB0746A4F85080AB
:102F1000A4F85280A368B3F5805F05D04FF0000895
:102F2000002384F8743014E0236913B14FF00008D3
:102F3000F6E7A8460025F3E738F8023B2268C3F31A
:102F400008031385B4F8522092B2013A92B2A4F861
:102F50005220B4F852309BB273B100963B46002227
:102F600080212046FFF74BFFD8B9002DE4D023681D
:102F700015F8012B1A85E5E700963B460022402113
:102F80002046FFF73CFF70B92023A36700E0022032
:102F900002B0BDE8F0810120FAE70120F8E7022045
:102FA000F6E70320F4E70320F2E730B583B00446E8
:102FB0000023C0F88030FEF737FB05462268126810
:102FC00012F0080F0DD123681B6813F0040F16D1FF
:102FD0002023A367E3670020206684F8740003B011
:102FE00030BD6FF07E430093034600224FF4001182
:102FF0002046FFF704FF0028E5D00320EFE76FF03D
:103000007E4300932B4600224FF480012046FFF7B9
:10301000F6FE0028DCD00320E1E768B310B50446D3
:10302000836F03B32423A3672268136823F001038B
:1030300013602046FFF72EFD012813D0636ABBB949
:103040002268536823F4904353602268936823F006
:103050002A0393602268136843F00103136020463B
:10306000FFF7A3FF10BD80F87430FEF755FAD9E7DB
:103070002046FFF75FFEE3E70120704708B5034BEA
:10308000186808B100F0C6FE002008BDE409002061
:1030900008B54FF6FF738AB201460248FFF719FFE1
:1030A00008BD00BFDC0A002008B54FF0FF31024B1D
:1030B000186800F07BFE08BDE409002008B5024B4B
:1030C000186800F0A7FE08BDE4090020004870471A
:1030D00038C900080048704744C9000800487047D4
:1030E00050C9000808B5024B186800F093FE08BDEF
:1030F000E009002008B5FFF7C1FF70B1002000F023
:10310000D5FD08BD0948FFF7C3FF4FF4FE7107481E
:1031100000F000FC01460028F4D14FF0FF31044BD1
:10312000186800F043FE0028F7D1EEE7640B00209A
:10313000E00900200023042B1CD800B50E4803EB47
:10314000C30103EB410C0CF12001014401F1040E19
:1031500000224A608A60CA600A610A7500EB0C01AD
:1031600081F8232081F835200133DBB2042BE5D927
:103170005DF804FB704700BF600D0020014B83F831
:103180009D007047600D0020014B83F8A10070473F
:10319000600D002008B5084B93F89E3023B9064B0C
:1031A000012283F89F2008BDFFF77EFF024B01221A
:1031B00083F8A020F7E700BF600D002008B5084B9A
:1031C00093F89E3023B9064B002283F89F2008BD58
:1031D000FFF774FF024B002283F8A020F7E700BF3F
:1031E000600D00202DE9F0478CB005460E46904654
:1031F00099460846FDF784FA074600240A94ADF87C
:103200002C40079408948DF82440052D07D9AC4B29
:103210001B687BB14FF40F72AA49AB489847AB4B80
:1032200093F89D301BB1A94B1B78AB4212D20CB066
:10323000BDE8F087A34B4FF40F7204920393A249A9
:103240000291A34901910092A24AA3492046FFF7A7
:10325000C9FFFEE7304600F01FFAA842E7D39F49B6
:10326000304603F0C7F90028E1D016AB0693FFF70C
:1032700091FF964B93F8A13063BB002401212846AF
:1032800000F068FA002836D10221284600F062FAE0
:1032900000283AD11C21284600F05CFA002853D1BE
:1032A000E021284600F056FA002840F0A480069B52
:1032B000159AC4F500718A48204404F0B7FF04440D
:1032C000B4F5007F00F22281002880F221814FF4C2
:1032D00000741DE1DFF808A2824A5146002000F088
:1032E00095FB0446804B53F825200AEB000100F0C3
:1032F0008DFB0444C2E77D4B53F8252078492144D7
:10330000204600F083FB0444BEE732467449214462
:10331000204600F07BFB0444082F07D9744A70490B
:103320002144204600F072FB0444B3E7C7F10802D1
:10333000202107A802F0FCFE07AA69492144204683
:1033400000F064FB0444E9E76A4A654921442046E9
:1033500000F05CFB04440421284600F0FBF990B91E
:103360000821284600F0F6F920BB1021284600F07D
:10337000F1F9002835D1604A59492144204600F02E
:1033800045FB04448CE7FFF7A1FE02465449214463
:10339000204600F03BFB04441821284600F0DAF9EF
:1033A0000028DDD0524A4E492144204600F02EFB31
:1033B0000444D5E7FFF78EFE0246494921442046E2
:1033C00000F024FB04441021284600F0C3F9002833
:1033D000CBD0474A42492144204600F017FB044421
:1033E000C3E7FFF77BFE02463D492144204600F03B
:1033F0000DFB0444BFE7414A39492144204600F00F
:1034000005FB04442021284600F0A4F990B980214E
:10341000284600F09FF978BB4021284600F09AF931
:10342000002844D1364A2E492144204600F0EEFAC5
:1034300004443CE742462A492144204600F0E6FA8B
:1034400004444021284600F085F938B12D4A24492A
:103450002144204600F0DAFA0444D8E780212846C7
:1034600000F078F90028D2D0214A1D492144204695
:1034700000F0CCFA0444CAE7149B234A05210AA8A9
:1034800002F0A8FE0AAA16492144204600F0BEFA1E
:1034900004444021284600F05DF90028BCD0144ABD
:1034A0000F492144204600F0B1FA0444B4E74A46EB
:1034B0000B492144204600F0A9FA0444B2E700BFBA
:1034C000040E0020B0CA00089CC90008600D00204E
:1034D000B8C9000858C9000894C90008610D002047
:1034E000080E0020DCC90008F8CA000810CB00084C
:1034F000E0C90008E4C90008E8C90008ECC90008F0
:10350000F8C90008F0C90008F4C900084FF40074B5
:10351000A31DB3F5007F01D94FF4FD74134B9B7CC1
:1035200033B1134800230355124903F063F888B1FF
:103530000E4B93F8A13083B90D4E0F4A3119204636
:1035400000F064FA22183146284600F03DFAFFF7F1
:1035500035FE6CE6FFF732FE69E6084A044921446D
:10356000204600F053FA0444E6E700BF600D002057
:10357000080E0020720D002004CA0008FCC90008D3
:103580000D4B93F89C3003B9704700B585B001200E
:10359000FFF7F4FD012000F029FA084B0293084BD5
:1035A0000193F4230093074B074A08490320FFF7D0
:1035B00019FE05B05DF804FB600D002008CA000884
:1035C00010CA000894CA000858C9000894C9000825
:1035D00030B587B004460D46052807D90F4B1B6848
:1035E0005BB14FF49F720E490E48984720340E4B42
:1035F00003EB8404656007B030BD094B4FF49F7244
:103600000492039307490291084901910092084AE4
:1036100008490020FFF7E6FDFEE700BF040E00208A
:10362000E8CA00089CC90008600D0020B8C900085D
:1036300058C9000894C9000810B586B0044605288A
:1036400007D90E4B1B6843B14FF4AC720C490D48BF
:1036500098470D4B1C7006B010BD094B4FF4AC726F
:103660000492039307490291084901910092084A84
:1036700008490020FFF7B6FDFEE700BF040E00205A
:10368000D4CA00089CC90008600D0020B8C9000811
:1036900058C9000894C9000870B586B0064640B104
:1036A000254B93F89C30002B43D0FFF773FD00248B
:1036B00019E0224B1B682BB14FF4EF7220492148CF
:1036C0009847EDE71E4B4FF4EF72049203931D49A8
:1036D00002911D49019100921C4A1D49FFF782FD8C
:1036E000FEE70134E4B2042C1DD804EBC40304EB60
:1036F0004302114B134493F83530002BF1D011469F
:1037000020310D4B194410220431304602F0A6FD41
:103710000028E6D104EBC40304EB4305064B1D442B
:1037200095F8234000E00524FFF748FD204606B049
:1037300070BD0524FAE700BF600D0020040E0020D4
:10374000BCCA000838CA0008B8C9000858C900082F
:1037500094C9000830B587B004460D46052807D93E
:10376000114B1B6873B140F2DB2210491048984797
:103770002034104B03EB840463682B4212D00120E9
:1037800007B030BD094B40F2DB2204920393084995
:103790000291094901910092084A09490020FFF766
:1037A00021FDFEE70020EBE7040E0020A0CA000880
:1037B0009CC90008600D0020B8C9000858C900085D
:1037C00094C9000808B50B4B83F89E0058B193F8D4
:1037D000A0301BB9074A92F89F202AB91BB1054BAC
:1037E00093F89F301BB108BDFFF75EFCFBE7FFF7C6
:1037F00065FCF8E7600D002038B5134B93F89C305A
:1038000013B10024204638BDFFF738FC04460028D9
:10381000F8D100F0F1F804460028F3D10120FFF7B9
:10382000D1FF094D002385F89F3085F8A030012095
:10383000FFF7AAFC0520FFF7FFFEFFF77BFC012343
:1038400085F89C30DEE700BF600D00200B4B186848
:103850000B4B1B68984208D80A4A127812B90A49D9
:10386000097821B13AB900207047C01A7047C01AD0
:1038700000F5C06070474FF4C0607047101600201C
:103880000C160020081000200C00002008B5FFF7DF
:10389000DDFFC0F5C06008BD2DE9F04106460C46CD
:1038A000FFF7F4FF0346B8B1A04203D8154A01213F
:1038B00011700446144B1B681D19B5F5C06F0ED26C
:1038C0002246314611481844FCF772FE0E4B1D602B
:1038D0000F4B00221A7023461846BDE8F081C3F54D
:1038E000C0680A4F42463146F818FCF761FEA5F55C
:1038F000C0652A4606EB08013846FCF759FE024B24
:103900001D60E5E708100020101600200C100020B4
:103910000C000020F8B507460C46FFF73BFCFFF70C
:1039200095FF0646002841D0002C3ED0A04200D88A
:103930000446214B1B681A19B2F5C06F12D22246F9
:103940001E491944384600F0B7F805461A4A13686C
:1039500003441360B54224D065B3194B00221A709A
:103960002E4623E0C3F5C06214491944384600F0DE
:10397000A3F80546104B1B68C3F5C062824203D012
:1039800003440D4A1360E5E7221A0C49381800F089
:1039900093F80544084A13682B44A3F5C0631360E9
:1039A000D8E7084B01221A70D6E72646FFF706FC37
:1039B0003046F8BD2E46F9E70C1600200C1000200A
:1039C000081000200C00002008B508461146064BE0
:1039D0001B782BB1FFF760FF20B1FFF783FB01E0FD
:1039E000FFF756FB08BD00BF0A100020014B1870FE
:1039F000704700BF0A100020034B1B7813B9024B1D
:103A000001221A70002070470910002070B586B09E
:103A1000054616460C4681B136B33046017800297A
:103A200039D005F1010CB5F5007F34D201302346C1
:103A300003F8011B1C466546F0E7184B1B6823B1D1
:103A40002C22174917489847E6E7154B2C22049279
:103A5000039314490291144901910092134A1449A5
:103A60000020FFF7BFFBFEE70C4B1B6823B12D22A4
:103A70000B4910489847D0E7094B2D220492039335
:103A80000C490291084901910092084A0849002016
:103A9000FFF7A8FBFEE7801B06B070BD040E0020F8
:103AA00088CB000868CB0008B8C9000828CB0008FC
:103AB00094C900086CCB00082DE9F04186B0884617
:103AC0001646044620B1B8F1000F17D000272DE0AC
:103AD000224B1B6823B14622214922489847F2E72E
:103AE0001F4B4622049203931E4902911E490191E5
:103AF00000921E4A1E49FFF775FBFEE7174B1B6835
:103B000023B1472216491B489847DFE7144B472249
:103B10000492039317490291134901910092134AA9
:103B200013490020FFF75EFBFEE7A8463346013E3F
:103B300083B1454615F8013B04F8013B0137012FDD
:103B4000F3D902220C4908F1FF3002F087FB08B1DB
:103B5000A846EBE7384606B0BDE8F081040E002029
:103B60007CCB000870CB0008B8C9000828CB00083F
:103B700094C9000878CB000804CA000808B54FF0C3
:103B8000E0231B6901F060FF012800D108BD00F0AF
:103B9000A9FAFBE7EFF305832BB9064B186828B9A0
:103BA00001221A6070476FF0050070474FF0FF3038
:103BB000704700BF70180020EFF3058373B90A4BFC
:103BC0001B68012B0DD110B50024084BDC77064B88
:103BD00002221A6001F096FC204610BD6FF005002D
:103BE00070474FF0FF3070477018002000ED00E084
:103BF000F0B587B000240594EFF3058474BB68B377
:103C000022B31568936903B918235C1E372C49D871
:103C1000546814F0010F47D156696EB14FEA960C03
:103C200094682CB1D7685B2F02D9176907B1C6B960
:103C30002CB14FF0FF340EE04FF0800CF0E7D46869
:103C40008CB9146994B14FF0FF3404E01546002498
:103C500018234FF0800C012C0AD0ACB1059807B0A6
:103C6000F0BD0124F7E74FF0FF34F4E70024F2E75A
:103C7000146992680292019400930B4662462946A9
:103C800001F02CFB0590E9E705AA019200930B4691
:103C90001FFA8CF2294601F05CFB0128DED00023DC
:103CA0000593DBE70020DAE70020D8E7EFF3058390
:103CB0005BB910B5044658B101F0DCFB04280AD00A
:103CC000204601F07BFB002010BD6FF0050070471F
:103CD0006FF00300F8E76FF00200F5E708B5EFF3C7
:103CE000058333B908B9002008BD01F06FFD00203D
:103CF000FAE76FF00500F7E770B582B0EFF30583E0
:103D0000002B49D10E461446002849D0884249D399
:103D10004AB1956815B1D3684F2B14D8002D43D103
:103D2000E3680BB139E0002301280ED073BB3146A4
:103D300000F06AFD054685B304B124682146284693
:103D400001F0DAF829E00123EEE7B3B903220021FC
:103D5000012000F012FD0546002DECD0002EEAD027
:103D600000231A461946284600F06CFD0128E2D0CF
:103D7000284601F0EBF800250FE0A368032200922B
:103D80000022114600F0AFFC0546E5E7A268314687
:103D900000F017FD0546CEE70025284602B070BDAD
:103DA0000025FAE70025F8E70025F6E720B310B56F
:103DB00082B00C46EFF30583B3B101BB0021019142
:103DC00001AA01F045F801281CD1019850B14FF02B
:103DD000E0234FF08052C3F8042DBFF34F8FBFF3A1
:103DE0006F8F002002B010BD00F05FFF01280CD0E3
:103DF0006CB16FF00100F5E76FF0030070476FF0F2
:103E00000300EFE76FF00200ECE70020EAE76FF055
:103E10000200E7E720B300B583B0EFF30583A3B159
:103E20000023019301A900F038FE01281BD101985D
:103E300098B14FF0E0234FF08052C3F8042DBFF348
:103E40004F8FBFF36F8F002007E000231A461946FB
:103E500000F0F8FC012809D1002003B05DF804FB54
:103E60006FF0030070476FF00200F6E76FF002009A
:103E7000F3E70000034B0360034B0B6080231360E8
:103E8000704700BF1418002014160020034B036075
:103E9000034B0B604FF4807313607047741C002059
:103EA0007418002000F1080343604FF0FF32826075
:103EB000C360036100230360704700230361704700
:103EC00043684B609A688A60516099600861036832
:103ED00001330360704730B40D68B5F1FF3F11D076
:103EE00000F108031C465B681A68AA42FAD96368A5
:103EF0004B6099608C606160086103680133036006
:103F000030BC70470469F2E70369416882688A60DF
:103F1000416851605A68824206D0002202611A68E4
:103F2000013A1A601868704782685A60F5E7000025
:103F300082B0002301930D4B1B68B3F1FF3F08D003
:103F40004FF0500383F31188BFF36F8FBFF34F8F90
:103F5000FEE74FF0500383F31188BFF36F8FBFF379
:103F60004F8F019B002BFCD002B070471000002047
:103F700008480068006880F308884FF0000080F36C
:103F8000148862B661B6BFF34F8FBFF36F8F00DF47
:103F900000BF000008ED00E0DFF80C00016841F40C
:103FA000700101607047000088ED00E04FF0807301
:103FB00040F8043C21F0010140F8081C054B40F892
:103FC0000C3C40F8202C6FF0020340F8243C4438AD
:103FD000704700BF313F00080000000000000000F3
:103FE000074B19680868B0E8F04F80F30988BFF301
:103FF0006F8F4FF0000080F311887047AFF300809F
:10400000F02800204FF0500383F31188BFF36F8F27
:10401000BFF34F8F0B4A136801331360012B00D09D
:1040200070474FF0E023D3F8043D13F0FF0FF7D0B3
:104030004FF0500383F31188BFF36F8FBFF34F8F9F
:10404000FEE700BF10000020094B1B6843B94FF08A
:10405000500383F31188BFF36F8FBFF34F8FFEE7D9
:10406000013B034A13600BB983F31188704700BF0B
:104070001000002000000000000000000000000010
:10408000EFF30980BFF36F8F154B1A681EF0100F06
:1040900008BF20ED108A20E9F04F10602DE90900DB
:1040A0004FF0500080F31188BFF34F8FBFF36F8F35
:1040B00001F0B2FB4FF0000080F3118809BC1968D1
:1040C0000868B0E8F04F1EF0100F08BFB0EC108A7F
:1040D00080F30988BFF36F8F704700BFAFF3008094
:1040E000F028002008B54FF0500383F31188BFF388
:1040F0006F8FBFF34F8F01F061FA28B14FF0E023CB
:104100004FF08052C3F8042D002383F3118808BDBB
:104110004FF0E022002313619361054B1B680549B2
:10412000A1FB03139B09013B5361072313617047F4
:1041300000000020D34D62104FF0E023D3F8002D93
:104140003D4B9A421CD04FF0E023D3F8002D3B4B5F
:104150009A421ED030B583B0394B1A78D2B2019250
:10416000FF221A701B78DBB28DF803309DF8033004
:1041700003F05003334A1370334B07221A601BE0DD
:104180004FF0500383F31188BFF36F8FBFF34F8F4E
:10419000FEE74FF0500383F31188BFF36F8FBFF337
:1041A0004F8FFEE7284A1368013B13609DF80330E8
:1041B0005B00DBB28DF803309DF8033013F0800F05
:1041C000F0D1214B1B68032B08D04FF0500383F331
:1041D0001188BFF36F8FBFF34F8FFEE71B021A4AA0
:1041E000136003F4E0631360019BDBB2144A1370A5
:1041F0004FF0E024D4F8203D43F47003C4F8203D90
:10420000D4F8203D43F07043C4F8203DFFF780FF11
:1042100000250E4B1D60FFF7BFFED4F8343F43F07E
:104220004043C4F8343FFFF7A3FE01F0F5FAFFF76F
:104230007FFE284603B030BD71C20F4170C20F41EE
:1042400000E400E0D01C0020D41C0020100000205E
:10425000EFF305830F2B0FD9114A9B5CDBB2114A98
:1042600012789A4208D94FF0500383F31188BFF3B4
:104270006F8FBFF34F8FFEE74FF0E023D3F80C3D75
:1042800003F4E063084A1268934208D94FF05003E0
:1042900083F31188BFF36F8FBFF34F8FFEE7704733
:1042A000F0E300E0D01C0020D41C0020134A12F0E0
:1042B000070F1FD0D11D21F00701C1F53B63083363
:1042C00013440A460E480260002141601344083B33
:1042D00023F007030B48036059601960991A516075
:1042E0001360094B1960094B1960094B4FF00042EC
:1042F0001A60704740F6B833E4E700BFDC1C0020CA
:10430000A8280020D81C00209C28002098280020E5
:1043100094280020164B1A461B688342FBD3516831
:1043200002EB010C844509D0416800EB010C6345A8
:1043300009D00360904219D0106070474068014472
:1043400051601046F0E710B40A4C2468A3420BD029
:104350005B681944416013681B680360904200D099
:1043600010605DF8044B70470460F7E7704700BFCA
:10437000A8280020D81C002070B5054601F010F9CF
:10438000364B1B68A3B1364B1B681D424ED135B16D
:10439000083515F0070F02D025F007050835002D68
:1043A00046D0304B1B68AB4251D32F4A146804E00F
:1043B000FFF77CFFE7E722461C466368AB4202D268
:1043C0002368002BF7D1254B1B68A34241D0166808
:1043D00008362368136063685B1B102B10D96019C3
:1043E00010F0070F08D04FF0500383F31188BFF38C
:1043F0006F8FBFF34F8FFEE743606560FFF78AFF63
:10440000626818490B689B1A0B60184909688B424F
:1044100001D216490B60124B1B68134363600023E3
:104420002360134A13680133136002E0002600E0A2
:10443000002601F04FF916F0070F0CD04FF0500393
:1044400083F31188BFF36F8FBFF34F8FFEE7002612
:10445000EFE70026EDE7304670BD00BFD81C002016
:104460009428002098280020A82800209C280020BC
:10447000A0280020002834D038B50446A0F1080553
:1044800050F8043C174A1268134208D14FF0500309
:1044900083F31188BFF36F8FBFF34F8FFEE750F8A0
:1044A000081C41B14FF0500383F31188BFF36F8FA5
:1044B000BFF34F8FFEE723EA020340F8043C01F00C
:1044C0006FF854F8041C084A13680B44136028461C
:1044D000FFF720FF054A13680133136001F0FAF873
:1044E00038BD70479428002098280020A428002078
:1044F0000346406A18B11B6B1868C0F1380070475A
:1045000010B50446FFF77EFDA26BE36B9A4204D020
:104510000024FFF799FD204610BD0124F9E710B5EE
:104520000446FFF76FFDA36B23B90124FFF78CFD51
:10453000204610BD0024F9E770B504461546866B89
:10454000026C5AB903681BB100200136A66370BD26
:10455000806801F0D5FA0023A360F6E76DB94068E2
:10456000FCF726F8226C636813446360A2689342E8
:1045700019D3236863602846E7E7C068FCF718F89A
:10458000226C5142E3689B1AE3602268934202D294
:10459000A3680B44E360022D01D00020D5E726B1CB
:1045A000013E0020D1E72846CFE70020CDE70346B3
:1045B000026C6AB110B50846D9681144D9609C688C
:1045C000A14201D31968D960D968FBF7F1FF10BD8A
:1045D000704738B50546FFF715FD95F8454064B2BC
:1045E00001E0013C64B2002C0ADD6B6A43B105F1C5
:1045F000240001F08FF90028F3D001F01FFAF0E752
:10460000FF2385F84530FFF71FFDFFF7FBFC95F80A
:10461000444064B201E0013C64B2002C0ADD2B6925
:1046200043B105F1100001F075F90028F3D001F055
:1046300005FAF0E7FF2385F84430FFF705FD38BDA4
:1046400038B5E0B10D460446FFF7DCFC2368E26BA9
:10465000216C01FB0230A0600020A0636360013A7E
:1046600002FB0133E360FF2384F8443084F84530D3
:10467000FDB9236963B9FFF7E7FC012038BD4FF0AE
:10468000500383F31188BFF36F8FBFF34F8FFEE7A3
:1046900004F1100001F03EF90028ECD04FF0E023C7
:1046A0004FF08052C3F8042DBFF34F8FBFF36F8FCD
:1046B000E1E704F11000FFF7F5FB04F12400FFF738
:1046C000F1FBD8E738B51D46049C0B4649B9246078
:1046D000E063236401212046FFF7B2FF84F84C50C9
:1046E00038BD2260F4E740B94FF0500383F31188DE
:1046F000BFF36F8FBFF34F8FFEE710B584B01C463A
:10470000844653B192B189B94FF0500383F31188B5
:10471000BFF36F8FBFF34F8FFEE74FF0500383F36C
:104720001188BFF36F8FBFF34F8FFEE76AB150233D
:104730000393039B502B13D04FF0500383F3118846
:10474000BFF36F8FBFF34F8FFEE70029EFD04FF01D
:10475000500383F31188BFF36F8FBFF34F8FFEE7D2
:10476000039B012384F8463000949DF8183060467E
:10477000FFF7A8FF204604B010BD40B94FF050032A
:1047800083F31188BFF36F8FBFF34F8FFEE7F0B550
:1047900083B00D461446064601FB00F05030FFF78B
:1047A000EBFD074650B1002380F8463000902346C9
:1047B00000F1500229463046FFF784FF384603B027
:1047C000F0BD40B94FF0500383F31188BFF36F8FF2
:1047D000BFF34F8FFEE710B582B00C46884208D277
:1047E0004FF0500383F31188BFF36F8FBFF34F8FE8
:1047F000FEE702230093134600221146FFF773FFE2
:1048000000B1846302B010BD40B94FF0500383F390
:104810001188BFF36F8FBFF34F8FFEE710B50C46C3
:10482000884208D24FF0500383F31188BFF36F8F93
:10483000BFF34F8FFEE702220021FFF79EFF00B17A
:10484000846310BDF0B585B0019288B10F461D4656
:104850000446B1B1022D20D1E36B012B1DD04FF0E6
:10486000500383F31188BFF36F8FBFF34F8FFEE7C1
:104870004FF0500383F31188BFF36F8FBFF34F8F57
:10488000FEE7036C002BE5D04FF0500383F3118853
:10489000BFF36F8FBFF34F8FFEE701F0D5F80646E9
:1048A00058B9019B002B48D04FF0500383F3118877
:1048B000BFF36F8FBFF34F8FFEE700263DE02A4620
:1048C00039462046FFF738FE636A7BB948B14FF09E
:1048D000E0234FF08052C3F8042DBFF34F8FBFF396
:1048E0006F8FFFF7B1FB012005B0F0BD04F124008C
:1048F00001F010F80028F4D04FF0E0234FF0805280
:10490000C3F8042DBFF34F8FBFF36F8FE9E7FFF7B5
:104910009BFB0020E8E702A801F042F8012619E01D
:10492000002384F8443021E0002384F8453023E05C
:104930002046FFF74EFE00F0CDFEFFF763FBA26BB3
:10494000E36B9A42BBD3022DB9D0019B002BDED082
:10495000002EE0D0FFF778FB00F022FEFFF752FBBD
:1049600094F8442052B2B2F1FF3FD9D094F84520D8
:1049700052B2B2F1FF3FD7D0FFF766FB01A902A800
:1049800001F01AF8D8B92046FFF7BAFD0028CFD0B9
:10499000019904F1100000F089FF2046FFF719FE8D
:1049A00000F098FE0028C8D14FF0E0234FF080526D
:1049B000C3F8042DBFF34F8FBFF36F8FBDE72046C1
:1049C000FFF707FE00F086FE00208DE72DE9F84393
:1049D00090B10F4616461C460546B1B1022C20D1B7
:1049E000EB6B012B1DD04FF0500383F31188BFF305
:1049F0006F8FBFF34F8FFEE74FF0500383F31188A3
:104A0000BFF36F8FBFF34F8FFEE7036C002BE5D032
:104A10004FF0500383F31188BFF36F8FBFF34F8FB5
:104A2000FEE7FFF715FCEFF311894FF0500383F316
:104A30001188BFF36F8FBFF34F8FAA6BEB6B9A4256
:104A400006D3022C04D0002089F31188BDE8F88336
:104A500095F845804FFA88F8AB6B224639462846D0
:104A6000FFF76AFDB8F1FF3F06D008F101035BB222
:104A700085F845300120E7E76B6A0BB90120E3E7D1
:104A800005F1240000F046FF18B126B10120306086
:104A9000DAE70120D8E70120D6E768B170B50C4607
:104AA0000546036C8BB14FF0500383F31188BFF3BD
:104AB0006F8FBFF34F8FFEE74FF0500383F31188E2
:104AC000BFF36F8FBFF34F8FFEE70368EBB1FFF7C4
:104AD000BFFBEFF311864FF0500383F31188BFF350
:104AE0006F8FBFF34F8FAA6BEB6B934226D995F86C
:104AF00045305BB20132AA63B3F1FF3F11D00133FD
:104B00005BB285F84530012019E08368002BDED0C8
:104B10004FF0500383F31188BFF36F8FBFF34F8FB4
:104B2000FEE76B6A0BB9012009E005F1240000F0F3
:104B3000F1FE38B144B10120206000E0002086F38E
:104B4000118870BD0120FAE70120F8E7F0B585B0C3
:104B5000019290B10F460446C1B100F075FF0646C0
:104B600000BB019B002B5ED04FF0500383F31188F4
:104B7000BFF36F8FBFF34F8FFEE74FF0500383F308
:104B80001188BFF36F8FBFF34F8FFEE7036C002BCD
:104B9000E3D04FF0500383F31188BFF36F8FBFF35F
:104BA0004F8FFEE700263EE039462046FFF7FFFC28
:104BB000013DA563236923B9FFF746FA012005B03B
:104BC000F0BD04F1100000F0A5FE0028F4D04FF075
:104BD000E0234FF08052C3F8042DBFF34F8FBFF393
:104BE0006F8FE9E7FFF730FA0020E8E702A800F04E
:104BF000D7FE012621E0002384F8443029E0002379
:104C000084F845302BE02046FFF7E3FC00F062FD1E
:104C100009E02046FFF7DDFC00F05CFD2046FFF7D1
:104C20007EFC00283FD1FFF7EDF9A56B002DBBD12D
:104C3000019B002BD6D0002ED8D0FFF705FA00F04C
:104C4000AFFCFFF7DFF994F844305BB2B3F1FF3FFC
:104C5000D1D094F845305BB2B3F1FF3FCFD0FFF72E
:104C6000F3F901A902A800F0A7FE0028D1D120463F
:104C7000FFF755FC0028C6D0019904F1240000F08C
:104C800015FE2046FFF7A5FC00F024FD0028CAD140
:104C90004FF0E0234FF08052C3F8042DBFF34F8F45
:104CA000BFF36F8FBFE7002089E770B584B0019133
:104CB00058B10446036C8BB14FF0500383F3118855
:104CC000BFF36F8FBFF34F8FFEE74FF0500383F3B7
:104CD0001188BFF36F8FBFF34F8FFEE700F0B4FE74
:104CE000054650B9019B5BB14FF0500383F3118827
:104CF000BFF36F8FBFF34F8FFEE70026354655E0B9
:104D0000064653E0013BA36323683BB123694BB9DB
:104D1000FFF79AF90126304604B070BD00F088FF15
:104D2000A060F3E704F1100000F0F4FD0028EFD0DC
:104D30004FF0E0234FF08052C3F8042DBFF34F8FA4
:104D4000BFF36F8FE4E746B14FF0500383F3118850
:104D5000BFF36F8FBFF34F8FFEE7FFF775F9DAE709
:104D600002A800F01DFE01252AE0002384F844304B
:104D700032E0002384F8453034E0FFF743F9A068BF
:104D800000F072FE0646FFF75FF93BE02046FFF7B2
:104D900020FC00F09FFC09E02046FFF71AFC00F021
:104DA00099FC2046FFF7BBFB002842D1FFF72AF908
:104DB000A36B002BA6D1019B002BC4D0002DCFD01C
:104DC000FFF742F900F0ECFBFFF71CF994F84430D0
:104DD0005BB2B3F1FF3FC8D094F845305BB2B3F19A
:104DE000FF3FC6D0FFF730F901A902A800F0E4FDAB
:104DF0000028D1D12046FFF792FB0028C6D02368B7
:104E0000002BBAD0019904F1240000F04FFD204698
:104E1000FFF7DFFB00F05EFC0028C7D14FF0E02376
:104E20004FF08052C3F8042DBFF34F8FBFF36F8F45
:104E3000BCE70EB900266EE7FFF7E4F82046FFF75F
:104E400057FB0146A06800F0A3FEFFF7FDF8F1E76D
:104E50002DE9F843B0B10D4616460446D9B1FFF727
:104E6000F7F9EFF311884FF0500383F31188BFF384
:104E70006F8FBFF34F8FA76BCFB9002088F31188D6
:104E8000BDE8F8834FF0500383F31188BFF36F8FB1
:104E9000BFF34F8FFEE7036C002BE0D04FF05003C1
:104EA00083F31188BFF36F8FBFF34F8FFEE794F842
:104EB00044904FFA89F929462046FFF778FB013FD5
:104EC000A763B9F1FF3F06D009F101035BB284F893
:104ED00044300120D2E723690BB90120CEE704F169
:104EE000100000F017FD18B126B101203060C5E7B1
:104EF0000120C3E70120C1E70023072B0CD8074A94
:104F000052F833200AB10133F7E7044A42F833106C
:104F100002EBC30358607047704700BFB028002001
:104F20000023072B0FD8084A02EBC30252688242C3
:104F300001D00133F5E7044A002142F8331002EBB7
:104F4000C303596070477047B028002038B110B5CE
:104F50000446FFF7E5FF94F846304BB110BD4FF023
:104F6000500383F31188BFF36F8FBFF34F8FFEE7BA
:104F70002046FFF77FFAF1E770B504460D46164666
:104F8000FFF740F894F844305BB2B3F1FF3F0DD027
:104F900094F845305BB2B3F1FF3F0BD0FFF754F804
:104FA000A36B5BB12046FFF714FB70BD002384F8B0
:104FB0004430EDE7002384F84530EFE732462946D8
:104FC00004F1240000F08AFCECE70000084B1B68A9
:104FD0001B6823B9074B4FF0FF321A607047044B30
:104FE0001B68DB68DB685A68024B1A60704700BFB9
:104FF000F42800209C2D00202DE9F04780460D4626
:1050000017469946089EDDF824A00A9C9200A52127
:10501000206B01F08DF8236B07F18042013A03EB1E
:10502000820727F00707B5B34FF0000CBCF10F0F54
:105030000BD815F80C2004EB0C0383F8342015F87A
:105040000C3013B10CF1010CF0E7002384F843306D
:10505000372E00D93726E662E66400252565201D37
:10506000FEF72BFF04F11800FEF727FF2461C6F1BD
:105070003806A6616462656584F858504A46414620
:105080003846FEF793FF2060BAF1000F01D0CAF84E
:105090000040BDE8F087002384F83430D8E70000F2
:1050A00038B5002407E004EB840293000E4818444E
:1050B000FEF7F8FE0134372CF5D90C4D2846FEF7E3
:1050C000F1FE0B4C2046FEF7EDFE0A48FEF7EAFE25
:1050D0000948FEF7E7FE0948FEF7E4FE084B1D60AD
:1050E000084B1C6038BD00BFFC280020702D00203C
:1050F000842D0020A82D0020D42D0020C02D0020BC
:10510000F4280020F828002010B50446FEF77AFFA6
:10511000224A136801331360214B1B685BB1214B9A
:105120001B686BB91E4B1B68DA6AE36A9A4207D8A0
:105130001B4B1C6004E01A4B1C601368012B29D028
:10514000194A1368013313606364E06A174B1B68E4
:10515000984201D9154B186000EB8000211D144BBB
:1051600003EB8000FEF7ACFEFEF76EFF0D4B1B68F5
:105170007BB10B4B1B68DA6AE36A9A4209D24FF0A3
:10518000E0234FF08052C3F8042DBFF34F8FBFF3DD
:105190006F8F10BDFFF784FFD2E700BF5C2D0020AA
:1051A000F0280020BC2D0020682D00206C2D002050
:1051B000FC28002010B5044690F8593063B1012B4B
:1051C00011D0022B0ED04FF0500383F31188BFF3A0
:1051D0006F8FBFF34F8FFEE7006BFFF74BF9204651
:1051E000FFF748F910BDFFF745F9FBE70F4B1B68C8
:1051F000D3B110B5FEF706FF0D4BDB68DC68201D50
:10520000FEF782FE0B4A1368013B1360074A1368DE
:10521000013B1360FEF718FF2046FFF7CBFF034B5F
:105220001B68002BE6D110BD704700BF602D002029
:10523000D42D00205C2D002008B5FFF7D7FF074BC9
:105240001B68012BF9D94FF0E0234FF08052C3F8CF
:10525000042DBFF34F8FBFF36F8FEEE7FC280020C4
:1052600070B504460D46174B1E68174B186804307E
:10527000FEF74AFEB4F1FF3F0DD03444124B1B68D9
:105280005C60A64210D9114B18680F4B19680431A5
:10529000FEF721FE70BD002DEFD00B4B19680431D5
:1052A0000B48FEF70DFEF5E70A4B1868064B196828
:1052B0000431FEF710FE084B1B68A342EAD9064BE7
:1052C0001C60E7E7E82D0020F0280020F8280020E7
:1052D000C02D0020F42800209C2D002030B587B080
:1052E0000B9C7CB10C9DB5B15C250495049D5C2D97
:1052F0001AD04FF0500383F31188BFF36F8FBFF3C1
:105300004F8FFEE74FF0500383F31188BFF36F8F89
:10531000BFF34F8FFEE74FF0500383F31188BFF3C5
:105320006F8FBFF34F8FFEE7049D0C9D2C6302240B
:1053300085F8594000240394029505AC01940A9C19
:105340000094FFF759FE0C98FFF7DEFE059807B0B2
:1053500030BD2DE9F04385B00746884614461E4609
:105360009000FFF709F800B381465C20FFF704F8CE
:105370000546B0B1C0F83090E5B1002385F859304A
:10538000039302950D9B01930C9B00933346224699
:1053900041463846FFF730FE2846FFF7B5FE0120AC
:1053A00005E04846FFF766F8E6E74FF0FF3005B046
:1053B000BDE8F0834FF0FF30F9E7000038B5044650
:1053C000FEF720FE24B3251D2846FEF79DFDA36AA7
:1053D0001BB104F11800FEF797FD1F4A1368013353
:1053E00013601E4B1B68A34215D01D4A1368013B76
:1053F00013602046FFF7DEFEFFF7E8FDFEF724FE10
:10540000184B1B681BB1154B1B68A3420CD038BD51
:10541000124B1C68D7E729461348FEF751FD134A83
:10542000136801331360E9E7114B1B6843B14FF078
:10543000500383F31188BFF36F8FBFF34F8FFEE7E5
:105440004FF0E0234FF08052C3F8042DBFF34F8F8D
:10545000BFF36F8FDBE700BF682D0020F02800202E
:105460005C2D0020BC2D0020D42D0020602D0020BC
:10547000642D0020F8B5D0B104461D4B1B68834253
:105480002DD0FEF7BFFD65691A4B1E681A4B1F68C9
:10549000FEF7DAFDB54224D0BD4224D0174B9D4221
:1054A0000ED0174B9D4220D0BDB1012018E04FF027
:1054B000500383F31188BFF36F8FBFF34F8FFEE765
:1054C000A36A0BB102200BE094F85830DBB2012B39
:1054D00001D0032004E0022002E0042000E00020CC
:1054E000F8BD0220FCE70220FAE70420F8E700BF3D
:1054F000F0280020F4280020F8280020C02D0020EB
:10550000D42D002010B588B000240594069407AA75
:1055100006A905A8FEF7AEFC059B0293069B019326
:1055200000942346079A18491848FFF7D7FE184BEE
:10553000186040B100F0F6FB012806D0B0F1FF3F43
:1055400018D008B010BD0020F6E74FF0500383F3E9
:105550001188BFF36F8FBFF34F8F0E4B4FF0FF32A9
:105560001A600D4B01221A600C4B00221A60FEF7E4
:10557000E3FDE6E74FF0500383F31188BFF36F8F2D
:10558000BFF34F8FFEE700BF94CB000839520008ED
:10559000982D00209C2D0020BC2D0020E82D0020FF
:1055A000024A136801331360704700BF642D002066
:1055B000014B1868704700BFE82D0020F8B53A4B42
:1055C0001B68002B69D1394B1D6801351D60C5B9B9
:1055D000374B1B681B6843B14FF0500383F31188AE
:1055E000BFF36F8FBFF34F8FFEE7314A1168314B26
:1055F000186810601960304A136801331360FFF7B0
:10560000E5FC2E4B1B68AB423DD900272C4B1B6899
:10561000DB6A03EB83039A002A4B9B58012B00D9CA
:105620000127294B1B68002B3CD001273AE00127BA
:105630001F4B1B681B6843B31D4B1B68DB68DC6892
:1056400063689D4226D3261D3046FEF75DFCA36AA3
:105650001BB104F11800FEF757FCE36A1B4A1268FD
:10566000934201D9194A136003EB83039A00314630
:1056700014481044FEF724FCE26A114B1B68DB6AF5
:105680009A42D4D2D4E70027D2E70C4B4FF0FF3236
:105690001A60BBE7094A1360B8E70D4A1368013383
:1056A000136000273846F8BD642D0020E82D002047
:1056B000F4280020F8280020A02D00209C2D002098
:1056C000F0280020FC280020EC2D00206C2D00206C
:1056D000A42D002038B5354B1B6843B94FF050035B
:1056E00083F31188BFF36F8FBFF34F8FFEE7FEF791
:1056F00089FC2E4B1A68013A1A601B68002B4FD1A7
:105700002B4B1B680BB900244BE00024294B1B6872
:105710001BB3284BDB68DC6804F11800FEF7F4FBD0
:10572000251D2846FEF7F0FBE06A234B1B689842D4
:1057300001D9214B186000EB800029461F4B03EB79
:105740008000FEF7BDFBE26A1D4B1B68DB6A9A42D4
:10575000DCD31C4B01221A60D8E70CB1FFF736FCF2
:10576000194B1C6884B9174B1C68D4B14FF0E02367
:105770004FF08052C3F8042DBFF34F8FBFF36F8FEC
:1057800001240EE0013C07D0FFF718FF0028F9D0F4
:105790000C4B01221A60F5E70B4B00221A60E2E77E
:1057A0000024FEF751FC204638BD00BF642D0020C8
:1057B0005C2D0020A82D00206C2D0020FC2800204E
:1057C000F0280020EC2D0020A42D002010B5A8B159
:1057D0000446104B1B6843B14FF0500383F311880C
:1057E000BFF36F8FBFF34F8FFEE7FFF7D9FE0021A6
:1057F0002046FFF735FDFFF76DFF48B94FF0E02376
:105800004FF08052C3F8042DBFF34F8FBFF36F8F5B
:1058100010BD00BF642D00201F4B1B681BB11F4B28
:1058200001221A6070471D4B00221A601C4B1B6836
:1058300003EB83018A001B498A585AB90BB1013B1B
:10584000F6E74FF0500383F31188BFF36F8FBFF378
:105850004F8FFEE703EB830082000A4450684068E4
:10586000506003EB830C4FEA8C02083211448842EB
:105870000BD003EB830291000A4A0A445268D168B4
:10588000094A1160064A13607047406862469100F9
:10589000044A0A445060ECE7642D0020EC2D0020FF
:1058A0006C2D0020FC280020F028002058B110B5F5
:1058B0000C46094A11681831FEF70DFB01212046FC
:1058C000FFF7CEFC10BD4FF0500383F31188BFF3F8
:1058D0006F8FBFF34F8FFEE7F028002038B570B10F
:1058E0000D4614460A4A11681831FEF7E9FA0CB160
:1058F0004FF0FF3521462846FFF7B2FC38BD4FF088
:10590000500383F31188BFF36F8FBFF34F8FFEE710
:10591000F028002038B5C368DC6824B304F118050A
:105920002846FEF7F1FA184B1B682BBB251D2846AD
:10593000FEF7EAFAE06A154B1B68984201D9134B4F
:10594000186000EB80002946114B03EB8000FEF746
:10595000B7FAE26A0F4B1B68DB6A9A4211D9012041
:105960000D4B186038BD4FF0500383F31188BFF31F
:105970006F8FBFF34F8FFEE729460848FEF7A0FA66
:10598000E7E70020EEE700BF642D00206C2D00202B
:10599000FC280020F0280020EC2D0020A82D00205D
:1059A000034B1B680360034B1B684360704700BFD9
:1059B000A02D0020E82D0020F8B5C8B10C46054602
:1059C000F9B1FEF71FFB1B4B19686B68C81A2268F8
:1059D000B2F1FF3F26D0184E36682F68B74201D08B
:1059E0008B4224D9824215D80023236001241AE077
:1059F0004FF0500383F31188BFF36F8FBFF34F8FC6
:105A0000FEE74FF0500383F31188BFF36F8FBFF3AE
:105A10004F8FFEE75B1A134423602846FFF7C0FF51
:105A2000002400E00024FEF70FFB2046F8BD01240F
:105A3000F9E700BFE82D0020A02D0020014B012236
:105A40001A607047EC2D0020054B1B6833B1054BE5
:105A50001B680BB10020704702207047012070477F
:105A6000BC2D0020642D002000283ED038B504460F
:105A7000C36A204A1268D26A93422ED28269002AEF
:105A800005DB1C4A1268D26AC2F138028261616980
:105A900003EB8303184A02EB8303994205D0154BAD
:105AA0001B68DB6AE362012038BD251D2846FEF72E
:105AB0002BFA104B1B68D86AE062104B1B689842A7
:105AC00001D90E4B186000EB800029460A4B03EB0E
:105AD0008000FEF7F5F90120E6E7C26C054B1B6874
:105AE000DB6A9A4203D30020DEE7002070470120E2
:105AF000DAE700BFF0280020FC2800206C2D0020F1
:105B000000283BD038B504461E4B1B68834208D0A2
